:020000040800F2
:10000000600D002065020008CD210008C521000810
:10001000C92100085D040008DD2B00080000000075
:10002000000000000000000000000000D5210008D2
:100030006D04000800000000D1210008D92100084B
:100040007F0200087F0200087F0200087F0200088C
:100050007F0200087F0200087F0200087F0200087C
:100060007F0200087F0200087F0200087F0200086C
:100070007F0200087F020008610400087F02000878
:100080007F0200087F0200087F0200087F0200084C
:100090007F0200087F0200087F0200087F0200083C
:1000A0007F0200087F0200087F0200087F0200082C
:1000B0007F0200087F0200087F0200087F0200081C
:1000C0007F0200087F0200087F0200087F0200080C
:1000D0007F0200087F0200087F0200087F020008FC
:1000E0007F0200087F0200087F0200087F020008EC
:1000F0007F0200087F0200087F0200087F020008DC
:100100007F0200087F0200087F0200087F020008CB
:100110007F0200087F020008A52200087F02000875
:100120007F0200087F0200087F0200087F020008AB
:100130007F02000800000000000000007F020008AD
:100140007F0200087F0200087F0200087F0200088B
:100150007F0200087F0200087F0200087F0200087B
:100160007F0200087F0200087F0200087F0200086B
:100170007F0200087F0200087F02000800000000E4
:10018000000000007F0200080000000000000000E6
:100190007F02000800000000000000007F0200084D
:1001A0000000000000000000000000007F020008C6
:1001B0007F0200087F0200087F0200087F0200081B
:1001C0007F02000800F002F800F03CF80AA090E876
:1001D000000C82448344AAF10107DA4501D100F002
:1001E00031F8AFF2090EBAE80F0013F0010F18BF93
:1001F000FB1A43F001031847682D0000882D00000A
:10020000103A24BF78C878C1FAD8520724BF30C842
:1002100030C144BF04680C60704700000023002414
:1002200000250026103A28BF78C1FBD8520728BF06
:1002300030C148BF0B6070471FB502F074FE1FBD90
:1002400010B510BD00F0D0F81146FFF7F5FF02F031
:10025000C7FC00F0EEF803B4FFF7F2FF03BC00F0B8
:10026000F5F800000948804709480047FEE7FEE727
:10027000FEE7FEE7FEE7FEE7FEE7FEE7FEE7FEE756
:1002800004480549054A064B7047000091220008C2
:10029000C501000860070020600D002060090020F3
:1002A0006009002053EA020C00F069802DE9F04B50
:1002B0004FF00006002B1FBFB3FA83F503FA05F4D5
:1002C00024FA05F65E4012BF1643B2FA82F502FA2E
:1002D00005F4C5F120051EBF22FA05FC44EA0C0412
:1002E000203556EA044C4FEA144418BF641C4FF002
:1002F00000084FF00009904271EB030C39D300293C
:1003000019BFB1FA81F701FA07F6B0FA80F700FADF
:1003100007F6C7F120071EBF20FA07FC46EA0C06C5
:100320002037B6FBF4FCA7EB0507103F07F01F0BC7
:10033000CBF120062CFA06F60CFA0BFB44BFB346B1
:100340000026202FA4BF5E464FF0000B5BEA060C90
:1003500008BF4FF0010B19EB0B0948EB0608ABFB8C
:10036000027C06FB02CC0BFB03CCC01B71EB0C0127
:10037000C1E70B46024641464846BDE8F08B13B53F
:10038000084318BF4FF0FF300146AFF30080BDE8CF
:100390001C4070474FF0000200B513469446964645
:1003A000203922BFA0E80C50A0E80C50B1F1200188
:1003B000BFF4F7AF090728BFA0E80C5048BF0CC036
:1003C0005DF804EB890028BF40F8042B08BF704794
:1003D00048BF20F8022B11F0804F18BF00F8012B06
:1003E0007047704770477047754600F02BF8AE466F
:1003F00005006946534620F00700854618B020B531
:10040000FFF73EFFBDE820404FF000064FF0000729
:100410004FF000084FF0000BAC46ACE8C009ACE868
:10042000C009ACE8C009ACE8C00921F007018D465D
:10043000704710B50446AFF300802046BDE8104079
:10044000FFF709BF0048704710000020014918203D
:10045000ABBEFEE72600020070470000FEE700008A
:1004600040F27000C2F2000000F008B870470000CF
:10047000EFF3108072B600BFFEE70000F0B581B068
:1004800004460020009040F20800C2F2000002681A
:10049000D4E9166048F2B51337680821C1F64E3327
:1004A00081403942A2FB03250CD0226813685B0708
:1004B00008D5136823F004031360B160616D41F047
:1004C0000101616501218140394208D022685269E9
:1004D000120604D5B160616D41F00201616504212D
:1004E0008140394208D022681268920704D5B16071
:1004F000616D41F00401616510218140394217D0DE
:1005000020680268120713D5B160026801685203BF
:1005100008D4C90508D4016821F008010160216CE4
:1005200021B905E008033FD4216C09B12046884772
:10053000E16D202000FA01F23A4241D020680368C0
:10054000DB063DD5B26094F835300268052B1BD12F
:1005500022F016020260426922F080024261226C9F
:100560000AB9A26C1AB1026822F0080202603F20A8
:100570008840B060012084F83500216D00200029FA
:1005800084F8340052D157E00168520310D4C905F1
:1005900012D4016821F010010160012084F83500B7
:1005A000002084F8340007E0A16C0029BED1BFE729
:1005B000080301D4616C00E0E16B09B12046884773
:1005C000606DC8B3606DC0072ED0052084F835007B
:1005D0002068A90A026822F001020260009A013232
:1005E0008A4200921AD80268D20717D0009A0132C4
:1005F0008A42009212D80268D2070FD0009A0132C4
:100600008A4200920AD80268D20707D0009A0132C3
:100610008A42009202D80268D207DFD1012084F812
:100620003500002084F83400E16C29B1204601B087
:10063000BDE8F040084700BF01B0F0BD2DE9F04132
:10064000044600F09BF9ECB10546022084F8350021
:100650000020216884F83400086820F00100086058
:1006600021680868C00711D000F088F9401B0528F0
:10067000F6D9032520230320636584F83550BDE8AF
:10068000F08100BF0120BDE8F08100BF086848F29A
:100690003F02CFF21002D4E9013500EA020C04F166
:1006A0000C0898E8C10143EA0C032B431843D4E932
:1006B000072E304338431043626A40EA0E00042A92
:1006C00040EA08031CD1206BD4E90A2E40EA0E0050
:1006D000184308604869BEF1000F20F0030040EAAB
:1006E000020040F0040C11D0B8F5005F36D0B8F12C
:1006F000000F45D1022A46D0012A3BD032B942E050
:100700000B60486920F0070040EA020C01F0F80095
:100710004AF6AB221038CAF6AA22A0FB02231A0915
:1007200042F65873C0F600039A5C40F2FF335F282C
:100730004FF03F00C1F814C021EA030100FA02F0B3
:1007400088BF0431C4E91612886000230125002007
:10075000636584F83550BDE8F08100BF032AD5D821
:10076000012540230120DFE802F0030E030500BF4E
:1007700082E700BFAEF1C070B0FA80F0400904E03B
:10078000032A04D3C2D1CEF300600028BED00125D5
:1007900040230120636584F83550BDE8F0810000F6
:1007A000B0B5044600F0EAF8054640F20000C2F297
:1007B00000000078611C18BF044400BF00F0DEF8A0
:1007C000401BA042FAD3B0BD2DE9F04F82B000F13A
:1007D0003E4241F6000502F1FF77C4F2020507220E
:1007E00043F6004E4FEAB726A84208BF0622C4F2DD
:1007F000010E062E38BF4FEAB7220125002600273A
:100800004FF00008009208E008F101080437B8F141
:10081000100F06F1020600F0A7800C6805FA08F92F
:1008200014EA090FF0D0D1F804B003220BF0030C46
:10083000ACF10104B240012C6FEA020A10D88268C0
:10084000CC6802EA0A02B440224382604268CBF3D9
:10085000001422EA090204FA08F42243426005E087
:10086000BCF1030F02D14FF0030C20E0C2688C688A
:1008700002EA0A02B4402243BCF1020FC26016D160
:100880006FF0030202EA58020244D2F820C007F0D7
:100890001C050F230C69AB402CEA030304FA05F591
:1008A0002B431362D1F804B001250BF0030C02684E
:1008B0000CFA06F302EA0A021A431BF4403F0260F4
:1008C000A2D0002243F644030192C4F202031A6844
:1008D0004FF6084C42F480421A601A68CFF6FF7C4B
:1008E00002F480420192019A28F00302724452F805
:1008F0000C3007F00C050F24AC40A343009C04FA15
:1009000005F52B4342F80C30DEF808204B6842EA2C
:10091000090543F60C4CDC0258BF22EA0905CEF863
:100920000850C4F2010CDCF800209C0242EA0905E0
:1009300058BF22EA0905CCF80050DEF804209C03D9
:1009400042EA090558BF22EA0905CEF80450DEF84C
:100950000020DB0342EA090558BF22EA0905CEF868
:100960000050012550E700BF02B0BDE8F08F000045
:10097000002A08BF090481617047000040F25C70E2
:10098000C2F200000068704770B5B8B3044690F832
:100990003D0028B9002084F83C00204600F0B0F863
:1009A000242084F83D002068016821F001010160E5
:1009B000016841F400410160016821F400410160D7
:1009C00000F05EFD48F28041C0F21E0140F60013C7
:1009D000D4F804E088424FF00001C0F23D0348F231
:1009E000A16C4FF0000238BF01219842C0F2010C07
:1009F00038BF0122E64538BF0A460AB1012070BD62
:100A00004DF68361C4F21B31A0FB01122168950CE5
:100A10004B684FF4967623F03F0343EA92437543C5
:100A200044F6D3564B60C1F262060B6AA5FB06562C
:100A3000B50923F03F03E64538BF950C6A1C1A43FD
:100A40000A62CA6948F2A0664CF6FF73C0F201065A
:100A5000B64522EA03020BD801384FEA4E03B0FB39
:100A6000F3F001306FF31F30042898BF04201EE01C
:100A7000A368013863B119230EFB03F3B0FBF3F055
:100A800001306FF31F3078B100F5804008E000BFFF
:100A90000EEB4E03B0FBF3F001306FF31F3028B1C3
:100AA00000F5004003E000BF012000E001201043FA
:100AB000C8610868D4E9072320F0C0001043184338
:100AC0000860886848F2FF3204F10C0690434CCE6F
:100AD00018431043A5698860C86820F0FF003043C0
:100AE0002843C860086840F0010008600020202109
:100AF000206484F83D10206384F83E0070BD00003F
:100B0000B0B586B0016845F60000C4F2000081422D
:100B100002D006B0B0BD00BF002443F630050194FA
:100B2000C4F202052968122241F0200129602968D7
:100B300000F5DE3001F020010191019903210191BE
:100B400004910421059101A9CDE90224FFF73CFE9F
:100B50000094286940F480002861286900F480002E
:100B60000090009806B0B0BD40F2000040F25C7109
:100B7000C2F20000C2F2000100780A681044086066
:100B80007047000080B543F60040C4F202000168DF
:100B900041F400710160016841F480610160016805
:100BA00041F480710160032000F088F8002000F01B
:100BB00005F800F027F8002080BD000070B540F275
:100BC0000006C2F2000640F208013278C2F20001CB
:100BD0004FF47A730968B3FBF2F20446B1FBF2F109
:100BE000084600F02DFF0F2C4FF0010508D838B94A
:100BF0004FF0FF3021460022002500F033F87460EA
:100C0000284670BD82B0002043F640010190C4F236
:100C100002014A6842F480424A604A6802F4804213
:100C20000192019A0090086840F0805008600868BE
:100C300000F080500090009802B07047002848BF34
:100C40007047C1B200F01F00012202FA00F04EF21C
:100C50000012CEF2000242EAD10121F00301086045
:100C60007047000010B54EF60C5CCEF2000CDCF8BC
:100C70000030C3F3022E8EF00704042C28BF042496
:100C8000BEF103034FF0FF3E0EFA04F438BF002319
:100C9000A14399400EFA03F39A43114300F00F0267
:100CA00000F160430901043A03F5644362440028FB
:100CB00048BF02F10C03197010BD00004EF60C5134
:100CC000CEF200010A684FF6FF031A4060F30A22D1
:100CD00042F0806040F0FD700860704701220168BA
:100CE000C0F80025002280F8F424886940F00060F4
:100CF0008861486D40F0805040F0030200204A6552
:100D0000704700002DE9F04F8BB0002800F086807E
:100D10000446056890F8BD0428B9002084F8BC0496
:100D2000204600F093F8032084F8BD04E86BC0056A
:100D30005CBF00202061206801F016FF206804F1EC
:100D40001C0A0A90D4E90C5004F1040E9AE8C0077A
:100D50009EE80E58CDE9085003A880E8C0030A9821
:100D60008DE80058CDF81CA001F0B8FB002852D146
:100D700020680021002501F0FFFE616861B30120B9
:100D80000023002203EBC30304EB830787F83C2016
:100D9000D3B20132A7F84430D3B2994287F83D006C
:100DA00087F84050C7E912557D65EBD80020002335
:100DB000002200BF03EBC30304EB830787F87C2208
:100DC0000132D3B2994287F87D0287F88002C7E9E1
:100DD000A200C7F89402EDD8A06822680A90D4E96E
:100DE0000C5004F1140E04F1240AD4E903379EE8F0
:100DF00040589AE80007CDE9085002A880E800585A
:100E000010460A9ACDE90076CDE90589CDF81CA0F7
:100E100001F064FC30B1022084F8BD0401200BB065
:100E2000BDE8F08F002084F83800012084F8BD046C
:100E3000606A012802D12046FFF750FF206801F0C8
:100E40003DFC00200BB0BDE8F08F0000F0B59DB078
:100E5000044601A804305821FFF79CFA2068B0F13D
:100E6000A04F01D01DB0F0BD4FF48070019001A8DB
:100E700000F03EF8002818BFFFF7FAFA002743F603
:100E800030061897C4F202063068002440F00100D2
:100E900030603068C4F2020400F001001890189825
:100EA0004FF4E85018900220CDE9190703201B9059
:100EB0000A2018AD1C9020462946FFF785FC4FF408
:100EC0000070CDE91807204629461A97FFF77CFCE9
:100ED000706840F0800070600097706940F4804056
:100EE0007061706900F48040009000981DB0F0BD02
:100EF0002DE9F04381B00446006843F68C06C10733
:100F0000C4F2020604D14FF0000981070CD415E0A9
:100F10003168A26B21F0C06111433160B2FA82F1F5
:100F20004FEA5119810709D53168E26B21F0C051B0
:100F300011433160002A08BF4FF00109410705D471
:100F40004FF00008010712D420E000BF3168226B87
:100F500021F4401111433160B2FA82F14FEA511885
:100F6000B2F5801F08BF4FF0010901070ED53168A7
:100F7000626B21F440011143B2F5800F316008BF6C
:100F80004FF00109002A08BF4FF0010881065AD529
:100F90000020009056F84C0C47F2000740F08050BB
:100FA00046F84C0C56F84C0CC4F2000700F0805088
:100FB00000900098386840F480703860FFF7DEFCDD
:100FC000054600BF3868C00506D4FFF7D7FC401BB4
:100FD0000228F7D93AE100BF56F81C0C10F4407013
:100FE00017D0216C01F44071884212D056F81C0CC5
:100FF00040F64061C4F24721012220F440700A60AB
:1010000000220A6046F81C0C56F81C0CC00740F081
:1010100071812068216C56F8842C4FF6FF4701F44B
:10102000407322F4F812C0F6FF770F40B3F5407F0B
:1010300008BF3A4346F8842C56F81C2C6FF31F3136
:10104000114346F81C1CC1060AD4010613D44106FC
:1010500019D4C1051FD481052AD4410530D438E004
:1010600094F8580040F64061C4F24721C1F8A0034B
:1010700020680106EBD5B168E26C21F44001114310
:10108000B1604106E5D5B168A26C21F080611143E1
:10109000B160C105DFD5B168626D21F00061114317
:1010A000B160B2F1006F08BF4FF001088105D4D5DF
:1010B000B168626C21F080511143B160410508D5DF
:1010C000B168226D21F000511143B2F1005FB160AF
:1010D0001ED0B9F1000F1BD1B0F5006F18D0B8F1D8
:1010E000000F4FF0000000F017816827C4F2472777
:1010F000B860FFF743FC054656F88C0C800040F1C1
:10110000A980FFF73BFC401B0228F5D99EE000BFF9
:1011100040F26809C4F247290020C9F80000FFF72F
:101120002DFC054656F88C0C000105D5FFF726FC72
:10113000401B0228F6D989E02068C10701D0A16BC5
:1011400019B1810714D5E16B91B956F8081C56F80E
:10115000082CD4E9013501F4403102F070621943E2
:101160006769114341EA851141EA077146F8081C95
:10117000410703D5216BB1F5801F05D001071FD5AD
:10118000616BB1F5800F1BD156F8081C56F8082C7E
:10119000D4E9013701F4403102F0E04219432569F6
:1011A000114341EA871141EA0561D4F828C046F8A5
:1011B000081C3168ACF1010221F01F0111433160BC
:1011C00041051FD5216DB1F1005F1BD1271D56F8D8
:1011D00008CC56F8082CA8CFFF034FF6FF7127EA7A
:1011E00001014FF0C06702F0E04207EA4C2707F127
:1011F00000771A433A43A1F5803142EA8512114340
:1012000046F8081C000510D5271D8FCF40EA811035
:10121000D1034FF6FF729143A1F5803140EA03609C
:10122000084340EA077046F8080C0120C9F800009E
:10123000FFF7A4FB054600BF56F88C0C00013FF5F4
:101240004EAFFFF79BFB401B0228F5D9032001B0EE
:10125000BDE8F0832068410701D5216B19B1010772
:101260001AD5616BC1B956F8041CD4E9062301F400
:101270004031656A114341EA831141EA0561D4F8BE
:101280002CC046F8041C31686FF0FF0221F4F851BD
:1012900002EB0C2211433160C00516D5606DB0F130
:1012A000006F12D156F8040C226AD4E9061300F03C
:1012B0007060D2034FF6FF75AA430843A2F580324F
:1012C00040EA8310104346F8040C0120B860FFF791
:1012D00055FB044656F88C0C800007D4FFF74EFBF4
:1012E000001B0328F6D3032016E000BF002001B046
:1012F000BDE8F083FFF742FB054641F2883700BFA7
:1013000056F81C0C80073FF584AEFFF737FB401BF7
:10131000B8424FF00300F3D901B0BDE8F0830000FC
:101320002DE9F041002800F08B8043F60808C4F254
:1013300002080446D8F8F8030D4600F00F00884272
:1013400007D288F8F853D8F8F80300F00F00A84245
:1013500076D12068810717D5410705D5D8F8001048
:1013600041F4E051C8F80010010705D5D8F8001085
:1013700041F46041C8F80010D8F80010A26821F0CC
:10138000F0011143C8F80010C0073FD1D8F8F803A6
:1013900000F00F00A84207D988F8F853D8F8F803EE
:1013A00000F00F00A8424BD12068410707D5D8F8BC
:1013B0000010E26821F4E0511143C8F80010000762
:1013C00008D5D8F80000216920F4604040EAC10047
:1013D000C8F8000000F07CF8D8F8001042F640721F
:1013E000C1F30311C0F60002515C40F2080220FA7A
:1013F00001F140F20400C2F200000068C2F20002F3
:101400001160FFF7DBFB0020BDE8F0816068811E02
:10141000022907D258F8081C89015CBF0120BDE8E9
:10142000F08111E0012807D158F8081C89035CBF3E
:101430000120BDE8F08107E058F8081C890703D4B3
:101440000120BDE8F08100BFD8F8001021F00301B1
:101450000843C8F80000FFF791FA064641F28837C2
:10146000D8F80000616800F00C00B0EB810F8DD05F
:10147000FFF784FA801BB842F2D90320BDE8F0815F
:1014800040F2080043F60801C2F20000C4F2020173
:101490000068096842F65072C1F38221C0F600026A
:1014A000515CC8407047000040F2080043F6080154
:1014B000C2F20000C4F202010068096842F65072EC
:1014C000C1F34231C0F60002515CC84070470000D1
:1014D00010B543F60404C4F202046068C0F381014D
:1014E00042F20040C0F2F400DFE801F044020818C4
:1014F00041F20020C0F27A0010BD00BF216801F067
:101500003F02216823684902C3F3881116D4A1FB66
:1015100000010023FEF7C6FE17E000BF216801F0BE
:101520003F02216823684902C3F3881116D4A1FB46
:1015300000010023FEF7B6FE17E000BF41F20020D5
:10154000C0F27A004843B0FBF2F021680222C1F3F6
:10155000014102EB4101B0FBF1F010BD41F200206E
:10156000C0F27A004843B0FBF2F02168C1F3027187
:10157000B0FBF1F010BD00002DE9F04182B0002871
:1015800000F096800446007843F60006C007C4F2D7
:1015900002062BD0B06800F00C00042820D0B06800
:1015A00000F00C00082802D17068400218D4B0681E
:1015B00000F00C000C2802D17068400210D4606862
:1015C000B0F5803F07D0B0F5A02F40F03B813068E8
:1015D00040F480203060306840F4803030603BE17F
:1015E0003068800302D56068002861D020788007C9
:1015F00022D5B06810F00C0F11D0B06800F00C00CC
:10160000082802D17068400209D5B06800F00C00CB
:101610000C2840F09F807068400200F19B80306889
:10162000800702D5E068012842D13068216920F0A6
:10163000F80040EAC1003060207800073CD42078F0
:10164000400751D4A56985B3B06800F00C000828A4
:1016500040F0A880012D2BD07068E16900F4800271
:101660008A4225D1216A00F03F028A4220D147F602
:10167000C071626A0140B1EB821F19D1A16A4FF6B5
:10168000FF73C903994300F44032A1F580318A42C7
:101690000ED1E16A00F07062B2EB016F08D1216BEC
:1016A00000F0E040B0EB017F02D1002034E100BF48
:1016B000012002B0BDE8F0816069002840F200001E
:1016C000C4F247205ED00121C0F8801EFFF756F912
:1016D000054600BF706F8007B1D4FFF74FF9401B7C
:1016E0000228F7D9C5E000BF306C10F080580AD14D
:1016F00000200190306C40F080503064306C00F07D
:1017000080500190019847F20007C4F20007386842
:10171000C00511D4386840F480703860FFF72EF9A6
:10172000054600BF3868C00506D4FFF727F9401BFF
:101730000228F7D99DE000BFA068012805D0052840
:1017400052D1306F40F004003067306F40F001003C
:10175000306753E0E068002860D00020C4F24720E2
:1017600001210160FFF70AF9054600BF30688007D4
:101770003FF55BAFFFF702F9401B02284FF0030073
:10178000F4D9C9E00021C0F8801EFFF7F7F805463C
:10179000706F80077FF553AFFFF7F0F8401B02280A
:1017A000F6D966E00027C4F2472700203866FFF725
:1017B000E5F8022D05460BD1306880015ED5FFF7B4
:1017C000DDF8401B02284FF00300F5D9A4E000BF6C
:1017D000306880017FF569AFFFF7D0F8401B022821
:1017E0004FF00300F4D997E0316F002821F0010198
:1017F0003167316F21F00401316763D0FFF7BEF824
:10180000054641F2883700BF306F80076CD4FFF780
:10181000B5F8401BB842F7D92BE000BF0020C4F256
:10182000472000210160FFF7A9F8054630688007CE
:101830007FF502AFFFF7A2F8401B02284FF003002C
:10184000F4D969E03168002821F4803131603168D1
:1018500021F48021316051D0FFF790F8054600BF98
:10186000306880033FF5C2AEFFF788F8401B64285C
:10187000F6D9032002B0BDE8F08100BF04F11C05D9
:101880002FCD246B084340EA8210D9034FF6FF7234
:101890009143A1F5803140EA0560084340EA0470B5
:1018A000706001203866FFF769F8044630688001EF
:1018B0003FF5FBAEFFF762F8001B02284FF0030074
:1018C000F4D929E0FFF75AF8054641F2883700BFFE
:1018D000306F800708D5FFF751F8401BB8424FF032
:1018E0000300F5D918E000BFB8F1000F7FF4AAAEED
:1018F000306C20F080503064A4E600BFFFF73EF863
:101900000546306880037FF571AEFFF737F8401B5E
:1019100064284FF00300F4D902B0BDE8F081000064
:1019200070B538B10446406A30B10020206104F13E
:10193000140007E0012070BD6068B0F5827F03D01D
:1019400004F11C00002101600026A66294F85100F9
:1019500020B9204684F8506000F03CF8022084F85A
:10196000510094E80F0001F48271056802F404420A
:1019700025F040050560114403F400622369114419
:1019800003F002026369114403F00102A369E569EF
:10199000114403F40072114405F03802256A114421
:1019A00005F08002A56A114305F40052114301605D
:1019B000626A042101EA134102F0100211444160FD
:1019C000C16921F40061C1610120666584F851009C
:1019D000304670BD80B586B0016843F20000C4F2A5
:1019E0000100814202D006B080BD00BF002143F655
:1019F00030020191C4F20202536900F5504043F4F1
:101A000080535361536903F480530193019B019107
:101A1000136843F001031360126802F0010201929F
:101A2000019AE02201920222CDE9022103210491D0
:101A30000521059101A9FEF7C7FE06B080BD000093
:101A4000411E0020B0EB116F1CBF012070474EF209
:101A50001002CEF2000251604EF62351CEF2000188
:101A6000F0230B70072190601160704770470000F1
:101A700070470000B0B590F83C20012A04BF022056
:101A8000B0BD01F108053CCDD1E900CE23F47C5373
:101A900022F470521A432EF4F0431A432CF4E0431C
:101AA0001A4324F4C0431A432A43C96922F48042EA
:101AB000036811435964002180F83C100846B0BD0A
:101AC00010B590F83C20012A4FF0020251D080F866
:101AD0003D200268D2F804E0D2F808C00C682EF06D
:101AE0007003234341F2FF74C4F20004A242536026
:101AF0000EDC40F2FF73C4F200039A4216DCB2F12E
:101B0000804F2BD040F20043C4F2000324E000BF1A
:101B100040F2FF33C4F201039A4213DC41F60003A2
:101B2000C4F200039A4219D0002313E040F60003E8
:101B3000C4F200039A4211D040F60043C4F20003FD
:101B40000AE000BF44F20003C4F201039A4205D048
:101B500040F20043C4F201039A4204D149682CF0D8
:101B60008003194391600121002280F83D1080F824
:101B70003C20104610BD0000002804BF0120704723
:101B800010B5044690F83D0028B9002084F83C00C8
:101B9000204600F01FF8022084F83D002068211D37
:101BA00000F086FB012084F8460084F83E0084F8AB
:101BB0003F0084F8400084F8410084F8420084F833
:101BC000430084F8440084F8450084F83D00002078
:101BD00010BD000080B582B0006841F20001C4F27F
:101BE000000188421CBF02B080BD0020019043F676
:101BF0004000C4F202000168002241F010010160BF
:101C00000068002100F01000019001983620FFF7D5
:101C100029F8362002B0BDE88040FFF70FB8000079
:101C20007047000010B5016804460869800744BF8A
:101C3000C8685FEA807039D40869400744BFC86843
:101C40005FEA40703ED40869000744BFC8685FEA95
:101C5000007045D40869C00644BFC8685FEAC06028
:101C60004AD40869C0071CBFC8685FEAC07051D178
:101C70000869000644BFC8685FEA006052D408697A
:101C8000400644BFC8685FEA406053D408698006D4
:101C900046BFC8685FEA806010BD6FF02002204632
:101CA0000A61BDE81040FFF7E3BE00BF6FF002001D
:101CB0000861012020778869800743D02046FFF71C
:101CC000AFFF45E06FF004000861022020778869CB
:101CD00010F4407F40D02046FFF7A2FF42E000BF53
:101CE0006FF00800086104202077C86980073DD0A4
:101CF0002046FFF795FF3FE06FF0100008610820D5
:101D00002077C86910F4407F3AD02046FFF788FF5B
:101D10003CE000BF6FF001000861204600F0C4F90C
:101D20002168A5E76FF0800008612046FFF79EFE5E
:101D30002168A4E76FF040000861204600F0B6F982
:101D40002168A3E7204600F04FF8204600F0AAF9EA
:101D50002168002020776FE7204600F045F82046F4
:101D600000F0A0F92168002020776CE7204600F001
:101D70003BF8204600F096F921680020207769E7BB
:101D8000204600F031F8204600F08CF92168002050
:101D9000207766E780B586B001680020C4F20100B4
:101DA000814201D006B080BD002143F6300201918E
:101DB000C4F20202136800F5883043F01003136088
:101DC000126802F010020192019A4FF4007201921F
:101DD0000222CDE9022104910121059101A9FEF71A
:101DE000F3FC06B080BD0000704700002DE9F04311
:101DF00090F83C30012B04BF0220BDE8F0834FEA8D
:101E0000B202032A00F2FC80DFE802F0023E7EBE4E
:101E1000036840F200471A6A43F4806522F0010229
:101E20001A621C6A1A46D3F804E052F818CF8E687A
:101E300024F00204C4F20107BD4244EA060405D1BD
:101E4000CE6824F00C0426F0040634430E68BD422C
:101E500007D1D1E905572EF4407E45EA0E0545EA43
:101E6000070E2CF073073743C3F804E09F614F68F7
:101E700009695F631C629F6947F008079F619F695A
:101E800027F004079F61B1E0036840F200481A6A36
:101E900043F4806522F010021A621C6A1A46D3F8D5
:101EA00004C052F818EF8F6824F02004C4F201082F
:101EB000454544EA071407D1CF686FF0400624F087
:101EC000C00406EA07163443D1F80090454506D110
:101ED000D1E905562CF440672E4347EA860C2EF4D0
:101EE000E64747EA0927C3F804C09F614F680969BC
:101EF0009F631C629F6947F400679F619F6927F495
:101F000080679F6171E000BF036840F200481A6A71
:101F100043F4806522F480721A621C6A1A46D3F870
:101F200004C052F81CEF8F6824F40074C4F2010856
:101F3000454544EA072408D1CF6840F2FF463F02F6
:101F400024F4406427EA06063443D1F8009045455E
:101F500006D1D1E905562CF440572E4347EA061C1A
:101F60002EF0730747EA0907C3F804C0DF614F6822
:101F70000969DF631C62DF6947F00807DF61DF6919
:101F800027F00407DF6131E0036840F200451A6A78
:101F900043F4806722F480521A621A46D3F820C0B4
:101FA0005C6852F81CEFD1F800808E68C4F201051D
:101FB000AF4204D14D6924F4804444EA85142CF4E2
:101FC000005747EA06372EF4E64646EA08265C60E4
:101FD000DE614E6809691E641F62DF6947F40067AD
:101FE000DF61DF6927F48067DF6109021368194345
:101FF00011600021002280F83C200846BDE8F083F3
:102000000121002280F83C200846BDE8F083000052
:10201000002804BF0120704710B5044690F83D0029
:1020200028B9002084F83C00204600F01FF8022068
:1020300084F83D002068211D00F03AF9012084F861
:10204000460084F83E0084F83F0084F8400084F89D
:10205000410084F8420084F8430084F8440084F886
:10206000450084F83D00002010BD000081B00068EC
:102070000021C4F20101884202D001B0704700BFC4
:102080000020009043F64400C4F20200016841F0D1
:1020900001010160006800F001000090009801B0AB
:1020A0007047000070470000704700007047000054
:1020B000002804BF0120704710B5044690F83D0089
:1020C00028B9002084F83C00204600F021F82420A4
:1020D00084F83D002068C16821F40051C1602046A9
:1020E00000F084F92068016921F49041016141699F
:1020F00021F02A014161C16841F40051C160002012
:102100002021206484F83D1084F83E1010BD0000AA
:10211000F0B585B00446016844F60000C4F2000042
:10212000814201D005B0F0BD002643F63001009693
:10213000C4F202010A69032742F480220A610A6993
:1021400000F5E23002F480220092009A00960A68BC
:1021500042F008020A60096801F008010091009944
:102160004FF4407100910221CDE90116072104913D
:1021700069460397FEF728FB40F2700546F25800C7
:10218000C2F20005C4F2020040224FF0006185E86F
:1021900047004FF4803005F120024FF480630421A2
:1021A00083C22846C5E90436C5E90666C5E90B665B
:1021B000FEF744FA002818BFFEF75AF96563AC63CE
:1021C00005B0F0BDFEE70000FEE70000FEE70000FE
:1021D0007047000070470000FEF7C6BCB0B594B071
:1021E000002443F64000CDE90B44CDE909440694B0
:1021F000CDE90444CDE902440194C4F2020001682F
:10220000022541F080510160006800F0805001908B
:10221000019847F200000194C4F20000016841F403
:1022200040410160006800F44040019001980120A5
:1022300007904FF4A02008904FF480000E900420E7
:102240000F90A820CDE910050720CDE9120507A8B9
:102250000D95FFF791F928B1EFF3108072B600BF2A
:10226000FEE700BF0F20CDE902054FF4A050059016
:102270004FF48050069002A805210494FFF750F80F
:1022800020B1EFF3108072B6FEE700BF14B0B0BD0E
:102290004EF68850CEF20000016841F470010160F2
:1022A0007047000040F2D060C2F20000FFF7BABCF5
:1022B00010B540F6FF3E0368C4F2000E40F2004C39
:1022C0007045C4F2010C27DCB0F1804F31D040F2F0
:1022D0000042C4F2000290422BD040F60002C4F249
:1022E0000002904225D041F6FF72C4F200029042F3
:1022F00029DC70453CDCB0F1804F5FD040F20042F9
:10230000C4F20002904259D040F60002C4F200022A
:10231000904253D056E000BF40F60042C4F20002A3
:10232000904206D0604504D00022C4F201029042DF
:10233000D9D14A6823F07003134341F6FF72C4F207
:1023400000029042D5DD43F6FF72C4F201029042D2
:1023500022DC42F20002C4F2000290422ED000229F
:10236000C4F20102904229D0604527D02AE000BF84
:1023700040F60042C4F2000290421FD041F6000233
:10238000C4F20002904219D041F60042C4F20002A9
:10239000904213D016E000BF44F20002C4F20102E2
:1023A00090420BD044F60002C4F20102904205D0E4
:1023B00044F20042C4F20102904203D1CA6823F4FD
:1023C0004073134323F080024B69D1F800E08C681E
:1023D0001A430260C46240F48062C0F828E062459B
:1023E00004BF096901630121416110BD10B50446B4
:1023F0000068D4E902C22369016921F44051114304
:102400000161626943EA0C01E3691143C26819433F
:1024100049F20C639A431143C1604169A26921F4F6
:10242000407141F20043114340F48062C4F2010361
:102430009A42416102D1FFF737F801E0FFF720F837
:10244000E16963681922B1F5004FA0FB020123D1B5
:102450005A00DB0FFDF726FF48F21F51C5F2EB11C2
:10246000A0FB01235A094FF69C73C0F6FF7303F1DA
:10247000805302FB0300322303EBC000A0FB0101E9
:102480004FF4F87000EA111000EB0210C1F3421192
:1024900008442168886010BD9A009B0FFDF702FF79
:1024A00048F21F51C5F2EB11A0FB01235A094FF668
:1024B0009C73C0F6FF7302FB0300322303EB001092
:1024C000A0FB0101F02000EA511000EB0210C1F363
:1024D000431108442168886010BD000082B004994F
:1024E000DDF808C0012940F64051C0F203016FD168
:1024F000826B4FF6BF7322F480328263C268CFF6DC
:10250000BD731A40C260C2680B9B22F44012012BBB
:10251000C26003D1C26842F48012C26000220092FD
:10252000009A01320092009A8A4200F2A980026960
:10253000002A1ED4009A01320092009A8A4200F2C8
:102540009F800269002A14D4009A01320092009AF6
:102550008A4200F295800269002A0AD4009A013268
:102560000092009A8A4200F28B800269B2F1FF3F2A
:10257000D6DC00220092026942F001020261009A58
:1025800001320092009A8A427AD80269D2071AD0A0
:10259000009A01320092009A8A4271D80269D207E9
:1025A00011D0009A01320092009A8A4268D80269DA
:1025B000D20708D0009A01320092009A8A425FD86E
:1025C0000269D207DBD10021BCF1010F72D169E0B1
:1025D000C268089B42F04002C26000220192019A48
:1025E00001320192019A8A4250D80269002A1BD412
:1025F000019A01320192019A8A4247D80269002A5F
:1026000012D4019A01320192019A8A423ED802699B
:10261000002A09D4019A01320192019A8A4235D8DE
:102620000269B2F1FF3FDADC00220192026942F056
:1026300001020261019A01320192019A8A4225D86F
:102640000269D2071AD0019A01320192019A8A4294
:102650001CD80269D20711D0019A01320192019A65
:102660008A4213D80269D20708D0019A0132019236
:10267000019A8A420AD80269D207DBD1002106E01A
:102680000321BCF1010F15D10CE000BF0321826BC7
:10269000002B14BF22F4803242F480328263BCF1FA
:1026A000010F07D1826842F006028260826842F020
:1026B00020028260084602B0704700000146D0F850
:1026C000000E20F00300C1F8000ED1F8040840F01D
:1026D00002020020C1F80428704700002DE9F04FE5
:1026E00083B0DDF84C800E9F0022B8F1000FC0F8D7
:1026F0000421C0F80821C0F80C21C0F81021C0F84E
:102700001421C0F81821C0F81C21C0F82021C0F8FD
:102710002421C0F82821C0F82C21C0F83021C0F8AD
:102720003421C0F83821C0F83C2107D0826B00F575
:10273000006B42F40012826314E000BFD0F804285A
:1027400000F5006B42F00202C0F80428826B22F40C
:1027500000128263026842F040020260066846F09E
:10276000800606600026C0F8006ED0F80068012FD1
:10277000C0F8006806D1DBF80070002B18BF47F0E6
:10278000010703E0DBF8003043F00307DDF83CE02D
:10279000DDF8309040F64055C0F203050023C0F844
:1027A00000780193019B01330193019BAB4249D80F
:1027B0000369002B1BD4019B01330193019BAB42A6
:1027C00040D80369002B12D4019B01330193019B74
:1027D000AB4237D80369002B09D4019B0133019325
:1027E000019BAB422ED80369B3F1FF3FDADC002333
:1027F00001934FF484630361019B01330193019BB7
:10280000AB421FD803699B061AD5019B0133019384
:10281000019BAB4216D803699B0611D5019B01337E
:102820000193019BAB420DD803699B0608D5019B20
:1028300001330193019BAB4204D803699B06DBD4AF
:10284000002400E0012400230293029B0133029341
:10285000029BAB4248D80369002B1BD4029B013377
:102860000293029BAB423FD80369002B12D4029B18
:1028700001330293029BAB4236D80369002B09D483
:10288000029B01330293029BAB422DD80369B3F143
:10289000FF3FDADC0023029310230361029B013324
:1028A0000293029BAB421FD80369DB061DD5029B36
:1028B00001330293029BAB4216D80369DB0614D5A1
:1028C000029B01330293029BAB420DD80369DB06E6
:1028D0000BD5029B01330293029BAB4204D80369E0
:1028E000DB06DBD401E000BF01244FF0000A002921
:1028F000CBF810A0CBF814A0CBF81CA000F00681F8
:10290000D0F800394FF0006707EA13134FF67F3213
:102910004E1EC0F80039C0F810A9C0F808297BD0B5
:102920008B1E032B06F003097246009404D2202468
:10293000B9F1000F3FD165E026F0030400234FF00A
:10294000904E4FF67F384FF0000C00BF00EB0C05A7
:10295000D5F82079043C0EEAE777C5F82079C5F868
:102960003039C5F82889D5F840790CF1800C0EEA89
:10297000E777C5F84079C5F85039C5F84889D5F8E2
:1029800060790EEAE777C5F86079C5F87039C5F85F
:102990006889D5F880790EEAE777C5F88079C5F8B7
:1029A0009039C5F88889D1D1DDF84C800CF120042C
:1029B000B9F1000F26D000F510673D594FF0904C4B
:1029C0000CEAE5753B193D5100244FF67F3EB9F105
:1029D000010F1C61C3F808E014D01D6AB9F1020FA1
:1029E0000CEAE5771F621C63C3F828E00AD01F6C6D
:1029F0004FF0904505EAE7771F6400271F654FF603
:102A00007F379F64DDF83090009C002996464FF692
:102A10007F324FF0006779D0D0F8003B002E07EAF4
:102A20001313C0F8003B4FF00003C0F8103BC0F890
:102A3000082B6BD00239032906F0030C04D22023A3
:102A4000BCF1000F3DD161E0009426F003040023A7
:102A50004FF090474FF67F36002100BF4518D5F85C
:102A6000202B043C07EAE272C5F8202BC5F8303B66
:102A7000C5F8286BD5F8402B01F1800107EAE27216
:102A8000C5F8402BC5F8503BC5F8486BD5F8602B0E
:102A900007EAE272C5F8602BC5F8703BC5F8686BB1
:102AA000D5F8802B07EAE272C5F8802BC5F8903B79
:102AB000C5F8886BD2D1009C01F12003BCF1000F56
:102AC00024D000F53062D6584FF0904707EAE676FA
:102AD000D118D65000264FF67F33BCF1010F0E619E
:102AE0008B6013D00A6ABCF1020F07EAE2720A6235
:102AF0000E638B620AD00A6C4FF0904303EAE272D5
:102B00000A6400220A654FF67F328A64DBF81010EF
:102B1000B9F1000F21F48071CBF810106FF08041F3
:102B2000C0F818A0416103D1816941F010018161B1
:102B3000816943F60002C8F23C021143BEF1000F66
:102B4000816103D0816941F008018161B8F1010F11
:102B500005D1816941F0804141F004018161204645
:102B600003B0BDE8F08F00000146806820F001024C
:102B700000208A6070470000B0B50446C06820F0AD
:102B8000C040E06091B1012926D1E068002540F005
:102B90000050E0600120FDF703FE6069C00705F109
:102BA000010014D1312D0546F4D310E0E068002572
:102BB00040F08040E06000BF0120FDF7F1FD60695A
:102BC000C00705F1010002D0312D0546F4D332389B
:102BD000B0FA80F04009B0BD0120B0BDFEE70000B2
:102BE00092B041F60008C4F20208FDF7CBFFFFF7F0
:102BF000F5FA002743F63004CDE903770997C4F2CC
:102C000002042068A8F5A05540F004002060206868
:102C100044F2810100F004000990099809972068A6
:102C2000002240F020002060206844F2810900F07A
:102C30002000099009980997206840F080002060E2
:102C4000206800F08000099009980997206840F0FA
:102C500001002060206800F00100099009980997A0
:102C6000206840F002002060206800F00200099017
:102C700009980997206840F010002060206800F053
:102C80001000099009980997206840F0080020601A
:102C9000206800F00800099009980997206840F022
:102CA00040002060206800F0400009900998284604
:102CB000FDF75EFE4046402100224FF0400AFDF73E
:102CC00057FE4FF4005000904FF488106E46CDE947
:102CD0000107A8F580503146FDF776FDCDF800904C
:102CE0004FF0010928463146CDE901970397FDF7DA
:102CF0006BFD40463146CDE900A9CDE90277FDF7ED
:102D000063FD8020CDE90007404631460297FDF77C
:102D10005BFD00972068002140F4001020602068CF
:102D2000002200F40010009000980E20FDF79AFF9A
:102D30000E20FDF783FF40F2D000A8F5E031C2F28B
:102D4000000048F2A0624FF48043C0F2010280E824
:102D50008600C0E90373C0E90577C0E90777FDF78E
:102D600013FE28B1EFF3108072B600BFFEE700BF7C
:102D700040F23060A8F56841C2F200004FF4827260
:102D80004FF40073282680E886000A21C0E9037703
:102D9000C0E90573C661C0E90877C0E90A71FEF7AA
:102DA000BFFD28B1EFF3108072B600BFFEE700BF91
:102DB00040F288600021A8F58C32C2F20000142392
:102DC0008027CDE910110691C0E90021C0E9021366
:102DD000C0E904118761FFF71BF928B1EFF31080F8
:102DE00072B600BFFEE700BF40F28860C2F200008A
:102DF00010A9FEF765FE28B1EFF3108072B600BF90
:102E0000FEE700BF602009900A200A9040F2886027
:102E10000024C2F2000009A90022CDE90B44CDE94B
:102E20000D440F94FEF7E2FF20B1EFF3108072B66D
:102E3000FEE700BF4FF40050059040F28860C2F2F8
:102E4000000069460494CDE90244CDE900440794AA
:102E5000FEF710FE20B1EFF3108072B6FEE700BF60
:102E600040F28860C2F20000FEF794FF40F2D060AA
:102E70000021A8F50232C2F200004FF6FF73CDE93F
:102E80000011C0E90021C0E902138161FEF774FE60
:102E900020B1EFF3108072B6FEE700BF40F2D060C1
:102EA000C2F200006946FEF70BFE28B1EFF3108076
:102EB00072B600BFFEE700BF40F21870A8F5E83117
:102EC000C2F2000000240C234FF4E13280E8160027
:102ED000C0E90344C0E90534C461FFF7E9F828B14B
:102EE000EFF3108072B600BFFEE700BF40F224107F
:102EF000C2F200004FF0A0410622C0E900120221F8
:102F0000012200F11803C0E9031416C34462C0E9AA
:102F10000B24FDF7F7FE28B1EFF3108072B600BF67
:102F2000FEE700BFFEE7F1EE100A4FF6FF71C0F2B8
:102F3000C03120EA010040F04070E1EE100A704715
:102F40000000000000000000010203040607080959
:102F5000000000000102030400061016000610160F
:102F6000802F000800000020100000000002000870
:102F7000902F000810000020500D00001C020008D7
:102F800001000000100000000024F4000000000018
:04000005080001C529
:00000001FF
