:020000040800F2
:10000000F80F0020AD020008D5320008CD320008FC
:10001000D13200087D0B0008C93D00080000000037
:10002000000000000000000000000000C1330008D4
:100030008D0B000800000000D9320008C53300080D
:10004000C7020008C7020008C7020008C70200086C
:10005000C7020008C7020008C7020008C70200085C
:10006000C7020008C7020008C7020008C70200084C
:10007000C7020008C7020008810B0008C702000879
:10008000C7020008C7020008C7020008C70200082C
:10009000C7020008C7020008C7020008C70200081C
:1000A000C7020008C7020008C7020008C70200080C
:1000B000C7020008C7020008C7020008C7020008FC
:1000C000C7020008C7020008C7020008C7020008EC
:1000D000C7020008C7020008C7020008C7020008DC
:1000E000C7020008C7020008C7020008C7020008CC
:1000F000C7020008C7020008C7020008C7020008BC
:10010000C7020008C7020008C7020008C7020008AB
:10011000C7020008C702000891340008C70200089F
:10012000C7020008C7020008C7020008C70200088B
:10013000C70200080000000000000000C70200081D
:10014000C7020008C7020008C7020008C70200086B
:10015000C7020008C7020008C7020008C70200085B
:10016000C7020008C7020008C7020008C70200084B
:10017000C7020008C7020008C7020008000000000C
:1001800000000000C702000800000000000000009E
:10019000C70200080000000000000000C7020008BD
:1001A000000000000000000000000000C70200087E
:1001B000C7020008C7020008C7020008C7020008FB
:1001C000C702000800F002F800F061F80AA090E809
:1001D000000C82448344AAF10107DA4501D100F002
:1001E00056F8AFF2090EBAE80F0013F0010F18BF6E
:1001F000FB1A43F001031847A44A0000C44A000058
:10020000103A24BF78C878C1FAD8520724BF30C842
:1002100030C144BF04680C60704700000023002414
:1002200000250026103A28BF78C1FBD8520728BF06
:1002300030C148BF0B607047692900F045816429CF
:1002400000F04281752900F03F816F2900F0D681CE
:10025000782900F0FD810368DB0928BF41F08001A7
:10026000632900F0BA83E32900F0CD8300207047B2
:100270001FB504F0C9FC00F02DFC04000020002193
:1002800004F04CFB401C60601FBD10B510BD00F0B9
:10029000FBFB1146FFF7ECFF03F098FD00F01EFC9E
:1002A00003B4FFF7F2FF03BC00F060FC094880478D
:1002B00009480047FEE7FEE7FEE7FEE7FEE7FEE748
:1002C000FEE7FEE7FEE7FEE704480549054A064B60
:1002D000704700007D340008C5010008F8090020BF
:1002E000F80F0020F80B0020F80B002053EA020C56
:1002F00000F069802DE9F04B4FF00006002B1FBF86
:10030000B3FA83F503FA05F424FA05F65E4012BF4A
:100310001643B2FA82F502FA05F4C5F120051EBFB4
:1003200022FA05FC44EA0C04203556EA044C4FEA54
:10033000144418BF641C4FF000084FF000099042AD
:1003400071EB030C39D3002919BFB1FA81F701FA17
:1003500007F6B0FA80F700FA07F6C7F120071EBFCC
:1003600020FA07FC46EA0C062037B6FBF4FCA7EBA4
:100370000507103F07F01F0BCBF120062CFA06F6FD
:100380000CFA0BFB44BFB3460026202FA4BF5E46E9
:100390004FF0000B5BEA060C08BF4FF0010B19EBA6
:1003A0000B0948EB0608ABFB027C06FB02CC0BFBFF
:1003B00003CCC01B71EB0C01C1E70B460246414662
:1003C0004846BDE8F08B13B5084318BF4FF0FF3027
:1003D0000146AFF30080BDE81C4070470FB41CB568
:1003E000074B06AA7B4469460090059800F0D3FAB3
:1003F0000020694600F0E2FA1CBC5DF814FB000026
:10040000D505000070B5044685690068C10601D5B0
:10041000302600E02026C00707D070BDD4E90121B6
:1004200030469047206A401C20626D1EF6D570BD94
:1004300070B5044685690078C00707D170BDD4E95E
:10044000012120209047206A401C20626D1EF6D5B5
:1004500070BD09684A0501D540B27047C905FCD591
:1004600000B2704709684A0501D5C0B27047C90596
:10047000FCD580B2704770B50C460546012A05D000
:100480002878800600D5EA69002302E0012305E010
:100490005B1C934202D2E05C0028F9D1A869E618FF
:1004A000C01AA861286A184428622846FFF7AAFFE4
:1004B00004E0D5E9012114F8010B9047B442F8D3C8
:1004C0002846FFF7B5FF70BD2DE9F0410646002430
:1004D00010687529314616A510D0FFF7BAFF00281D
:1004E00002DA404213A507E031688A0701D512A558
:1004F00002E0490704D511A5012401E0FFF7B2FF8E
:1005000000210A2206F1240709E0B0FBF2FCB0FB4F
:10051000F2F302FB1C00303078541846491C0028C6
:10052000F3D123462A463046BDE8F04100F0D4B965
:10053000000000002D0000002B0000002000000043
:100540002DE9FF5F15468A460446DFF8AC80F84483
:100550000027D8E900103E46CDE9001010E03AF837
:1005600016106A4602A800F05AFA411C07D02178FA
:10057000890603D5E269391891420DD80744761CE3
:100580002078800602D5E069B84205DDAE42E6DBA0
:100590003AF816000028E2D1A069C01BA0612046ED
:1005A000FFF730FFD8E90010CDE90010002017E078
:1005B0003AF818106A4602A800F031FAB0F1FF3F8D
:1005C00081460BD000250DF1080B05E0D4E901218F
:1005D0001BF8050090476D1C4D45F7D308F101004D
:1005E000B0428046E4DB206A384420622046FFF7B0
:1005F0001FFFBDE8FF9F0000D246000070B5044613
:1006000021461068FFF72EFF002104F1240505E0C4
:1006100000F007023032C0086A54491C0028F7D1A4
:100620002068002308A2050708D500F02000084331
:1006300004D0E069012305A2401EE0612046BDE828
:10064000704000F049B900000000000030000000D8
:1006500070B504460D4621461068FFF703FF218858
:10066000090502D50F4A7A4402E00E4A7A440E3256
:10067000002104F1240305E000F00F060009965D57
:100680005E54491C0028F7D120780023000704D5C8
:10069000702D02D009B1022311322046BDE870400E
:1006A00000F01AB9C24500002DE9F05F8946044602
:1006B0004FF0000ADFF874B1FB44C0F820A02046D8
:1006C000E1688847002874D0252806D0D4E90121A4
:1006D0009047206A401C2062F1E700265F462046D2
:1006E000E16888472028054607DB312D05D27819B7
:1006F00010F8200C08B10643F1E7B00701D526F049
:100700000406C4F81CA00027C4F818A02A2D09D09C
:10071000284604F0FCF838B304EB8708303DC8F8ED
:10072000185019E059F8041B204604EB8702916128
:10073000E1688847012F054618D1E069002820DAD2
:1007400026F020061DE0D8F8180000EB800005EB2D
:1007500040003038C8F818002046E1688847054650
:1007600004F0D5F80028EED1012F0AD02E2D08D1A3
:100770002046E16888477F1C0546022F46F0200688
:10078000C4DBA069002803DA404246F00106A061FC
:10079000F00701D026F010066C2D0BD0682D09D083
:1007A0004C2D39D06A2D35D0742D35D07A2D33D0DB
:1007B00016E038E0E1682F4620468847B8420546F3
:1007C00009D16C2F26D04FF48060E16806432046A3
:1007D0008847054604E06C2F1AD04FF4807006431A
:1007E0000DB3A5F14100192802D8203546F4006662
:1007F0004A462946204626604E46FFF71DFD80B139
:1008000001280BD0F61D26F0070000F1080956E775
:100810004020E4E78020D8E70020D6E706F104096D
:100820004DE7284652E7206ABDE8F09F9845000052
:1008300010B5431C02E010F8011B71B18107FAD119
:100840004FF0013202C88C1A8C4314EAC211F9D05D
:10085000C01A0A0603D0C01E10BDC01A10BD0A047B
:1008600001D0801E10BD0902FCD0401E10BD4FF00B
:10087000000200B5134694469646203922BFA0E8F0
:100880000C50A0E80C50B1F12001BFF4F7AF0907FC
:1008900028BFA0E80C5048BF0CC05DF804EB8900ED
:1008A00028BF40F8042B08BF704748BF20F8022B30
:1008B00011F0804F18BF00F8012B70477047704748
:1008C000704710B500F0D8F8006810BD10B50446A8
:1008D00000F0D2F8046010BD2DE9F0470D469946AE
:1008E0009246044600F124080168880604D5E069B0
:1008F00021F01001216000E00120A84201DD471B2A
:1009000000E00027A1697A1902EB0900081AA0612A
:100910002078C00602D42046FFF774FD002608E0C8
:10092000D4E901211AF806009047206A401C761C81
:1009300020624E45F4DB2078C0060AD52046FFF73A
:1009400061FD06E0D4E9012130209047206A401C77
:100950002062381EA7F10107F4DC07E0D4E9012189
:1009600018F805009047206A401C2062281EA5F157
:100970000105F3DC2046FFF75BFD2078000602D579
:100980000220BDE8F0870120FBE7000001694A1C56
:1009900002610878704700B58FB0CDE901310021C0
:1009A000059105497944CDE9031011466846FFF7E2
:1009B0007BFE0FB000BD0000E5FFFFFF0A6802F8F4
:1009C000010B0A60704710B5436913B1AFF30080A3
:1009D00001E0FFF750FD012010BD127800F1240165
:1009E0000A7000224A700122EDE711684FF0FF32D1
:1009F000E9E710B5436913B1AFF3008001E0FFF7F9
:100A00009FFD012010BD128800F124018284002284
:100A1000C2840122EDE711684FF0FF32E9E72DE9CA
:100A2000F04116460C46054600F01EF8036893F8A0
:100A30000101012807D0FF2C12D8185D80B10120D8
:100A40002C70BDE8F081D3F807013246214603F24D
:100A50000713C7182846BC46BDE8F041002360478D
:100A60004FF0FF30EDE7000010B500F033F8001D47
:100A700010BD00BFA93E00000048704710000020D4
:100A800000487047100000207546FFF7F9FFAE469A
:100A900005006946534620F00700854618B020B58A
:100AA000FFF712FCBDE820404FF000064FF00007B2
:100AB0004FF000084FF0000BAC46ACE8C009ACE8C2
:100AC000C009ACE8C009ACE8C00921F007018D46B7
:100AD00070470000004870473000002010B5044601
:100AE000AFF300802046BDE81040FFF7D9BB0000FF
:100AF00030B44FF0013C50F8042B51F8043BCCFAD1
:100B000052F4D51A20D1FCB950F8042B51F8043B0B
:100B1000CCFA52F4D51A17D1B4B950F8042B51F8C5
:100B2000043BCCFA52F4D51A0ED16CB950F8042B10
:100B300051F8043BCCFA52F4D51A05D1002CDAD086
:100B400030BC4FF00000704729BAB1FA81F111F0C2
:100B50001801D1F120008440F2D1CA40CB4012F0FC
:100B6000FF0213F0FF0330BCD01A70470149182070
:100B7000ABBEFEE72600020070470000FEE7000063
:100B800040F2C800C2F2000000F008B87047000050
:100B9000EFF3108072B600BFFEE70000F0B581B041
:100BA00004460020009040F20800C2F200000268F3
:100BB000D4E9166048F2B51337680821C1F64E3300
:100BC00081403942A2FB03250CD0226813685B07E1
:100BD00008D5136823F004031360B160616D41F020
:100BE0000101616501218140394208D022685269C2
:100BF000120604D5B160616D41F002016165042106
:100C00008140394208D022681268920704D5B16049
:100C1000616D41F00401616510218140394217D0B6
:100C200020680268120713D5B16002680168520398
:100C300008D4C90508D4016821F008010160216CBD
:100C400021B905E008033FD4216C09B1204688474B
:100C5000E16D202000FA01F23A4241D02068036899
:100C6000DB063DD5B26094F835300268052B1BD108
:100C700022F016020260426922F080024261226C78
:100C80000AB9A26C1AB1026822F0080202603F2081
:100C90008840B060012084F83500216D00200029D3
:100CA00084F8340052D157E00168520310D4C905CA
:100CB00012D4016821F010010160012084F8350090
:100CC000002084F8340007E0A16C0029BED1BFE702
:100CD000080301D4616C00E0E16B09B1204688474C
:100CE000606DC8B3606DC0072ED0052084F8350054
:100CF0002068A90A026822F001020260009A01320B
:100D00008A4200921AD80268D20717D0009A01329C
:100D10008A42009212D80268D2070FD0009A01329C
:100D20008A4200920AD80268D20707D0009A01329C
:100D30008A42009202D80268D207DFD1012084F8EB
:100D40003500002084F83400E16C29B1204601B060
:100D5000BDE8F040084700BF01B0F0BD2DE9F0410B
:100D6000044600F09BF9ECB10546022084F83500FA
:100D70000020216884F83400086820F00100086031
:100D800021680868C00711D000F088F9401B0528C9
:100D9000F6D9032520230320636584F83550BDE888
:100DA000F08100BF0120BDE8F08100BF086848F273
:100DB0003F02CFF21002D4E9013500EA020C04F13F
:100DC0000C0898E8C10143EA0C032B431843D4E90B
:100DD000072E304338431043626A40EA0E00042A6B
:100DE00040EA08031CD1206BD4E90A2E40EA0E0029
:100DF000184308604869BEF1000F20F0030040EA84
:100E0000020040F0040C11D0B8F5005F36D0B8F104
:100E1000000F45D1022A46D0012A3BD032B942E028
:100E20000B60486920F0070040EA020C01F0F8006E
:100E30004AF6AB221038CAF6AA22A0FB02231A09EE
:100E400044F67D43C0F600039A5C40F2FF335F280E
:100E50004FF03F00C1F814C021EA030100FA02F08C
:100E600088BF0431C4E916128860002301250020E0
:100E7000636584F83550BDE8F08100BF032AD5D8FA
:100E8000012540230120DFE802F0030E030500BF27
:100E900082E700BFAEF1C070B0FA80F0400904E014
:100EA000032A04D3C2D1CEF300600028BED00125AE
:100EB00040230120636584F83550BDE8F0810000CF
:100EC000B0B5044600F0EAF8054640F20000C2F270
:100ED00000000078611C18BF044400BF00F0DEF879
:100EE000401BA042FAD3B0BD2DE9F04F82B000F113
:100EF0003E4241F6000502F1FF77C4F202050722E7
:100F000043F6004E4FEAB726A84208BF0622C4F2B5
:100F1000010E062E38BF4FEAB72201250026002712
:100F20004FF00008009208E008F101080437B8F11A
:100F3000100F06F1020600F0A7800C6805FA08F908
:100F400014EA090FF0D0D1F804B003220BF0030C1F
:100F5000ACF10104B240012C6FEA020A10D8826899
:100F6000CC6802EA0A02B440224382604268CBF3B2
:100F7000001422EA090204FA08F42243426005E060
:100F8000BCF1030F02D14FF0030C20E0C2688C6863
:100F900002EA0A02B4402243BCF1020FC26016D139
:100FA0006FF0030202EA58020244D2F820C007F0B0
:100FB0001C050F230C69AB402CEA030304FA05F56A
:100FC0002B431362D1F804B001250BF0030C026827
:100FD0000CFA06F302EA0A021A431BF4403F0260CD
:100FE000A2D0002243F644030192C4F202031A681D
:100FF0004FF6084C42F480421A601A68CFF6FF7C24
:1010000002F480420192019A28F00302724452F8DD
:101010000C3007F00C050F24AC40A343009C04FAED
:1010200005F52B4342F80C30DEF808204B6842EA05
:10103000090543F60C4CDC0258BF22EA0905CEF83C
:101040000850C4F2010CDCF800209C0242EA0905B9
:1010500058BF22EA0905CCF80050DEF804209C03B2
:1010600042EA090558BF22EA0905CEF80450DEF825
:101070000020DB0342EA090558BF22EA0905CEF841
:101080000050012550E700BF02B0BDE8F08F00001E
:10109000002A08BF090481617047000040F6100073
:1010A000C2F200000068704770B5B8B3044690F80B
:1010B0003D0028B9002084F83C00204600F0B0F83C
:1010C000242084F83D002068016821F001010160BE
:1010D000016841F400410160016821F400410160B0
:1010E00000F05EFD48F28041C0F21E0140F60013A0
:1010F000D4F804E088424FF00001C0F23D0348F20A
:10110000A16C4FF0000238BF01219842C0F2010CDF
:1011100038BF0122E64538BF0A460AB1012070BD3A
:101120004DF68361C4F21B31A0FB01122168950CBE
:101130004B684FF4967623F03F0343EA924375439E
:1011400044F6D3564B60C1F262060B6AA5FB065605
:10115000B50923F03F03E64538BF950C6A1C1A43D6
:101160000A62CA6948F2A0664CF6FF73C0F2010633
:10117000B64522EA03020BD801384FEA4E03B0FB12
:10118000F3F001306FF31F30042898BF04201EE0F5
:10119000A368013863B119230EFB03F3B0FBF3F02E
:1011A00001306FF31F3078B100F5804008E000BFD8
:1011B0000EEB4E03B0FBF3F001306FF31F3028B19C
:1011C00000F5004003E000BF012000E001201043D3
:1011D000C8610868D4E9072320F0C0001043184311
:1011E0000860886848F2FF3204F10C0690434CCE48
:1011F00018431043A5698860C86820F0FF00304399
:101200002843C860086840F00100086000202021E1
:10121000206484F83D10206384F83E0070BD000017
:10122000B0B586B0016845F60000C4F20000814206
:1012300002D006B0B0BD00BF002443F630050194D3
:10124000C4F202052968122241F0200129602968B0
:1012500000F5DE3001F02001019101990321019197
:1012600004910421059101A9CDE90224FFF73CFE78
:101270000094286940F480002861286900F4800007
:101280000090009806B0B0BD40F2000040F610019A
:10129000C2F20000C2F2000100780A68104408603F
:1012A0007047000080B543F60040C4F202000168B8
:1012B00041F400710160016841F4806101600168DE
:1012C00041F480710160032000F088F8002000F0F4
:1012D00005F800F027F8002080BD000070B540F24E
:1012E0000006C2F2000640F208013278C2F20001A4
:1012F0004FF47A730968B3FBF2F20446B1FBF2F1E2
:10130000084601F0DDFA0F2C4FF0010508D838B976
:101310004FF0FF3021460022002500F033F87460C2
:10132000284670BD82B0002043F640010190C4F20F
:1013300002014A6842F480424A604A6802F48042EC
:101340000192019A0090086840F080500860086897
:1013500000F080500090009802B07047002848BF0D
:101360007047C1B200F01F00012202FA00F04EF2F5
:101370000012CEF2000242EAD10121F0030108601E
:101380007047000010B54EF60C5CCEF2000CDCF895
:101390000030C3F3022E8EF00704042C28BF04246F
:1013A000BEF103034FF0FF3E0EFA04F438BF0023F2
:1013B000A14399400EFA03F39A43114300F00F0240
:1013C00000F160430901043A03F5644362440028D4
:1013D00048BF02F10C03197010BD00004EF60C510D
:1013E000CEF200010A684FF6FF031A4060F30A22AA
:1013F00042F0806040F0FD70086070470122016893
:10140000C0F80025002280F8F424886940F00060CC
:101410008861486D40F0805040F0030200204A652A
:10142000704700002DE9F04F8BB0002800F0868057
:101430000446056890F8BD0428B9002084F8BC046F
:10144000204600F093F8032084F8BD04E86BC00543
:101450005CBF00202061206802F07CFC206804F161
:101460001C0A0A90D4E90C5004F1040E9AE8C00753
:101470009EE80E58CDE9085003A880E8C0030A98FA
:101480008DE80058CDF81CA002F01EF9002852D1BA
:1014900020680021002502F065FC616861B301202D
:1014A0000023002203EBC30304EB830787F83C20EF
:1014B000D3B20132A7F84430D3B2994287F83D0045
:1014C00087F84050C7E912557D65EBD8002000230E
:1014D000002200BF03EBC30304EB830787F87C22E1
:1014E0000132D3B2994287F87D0287F88002C7E9BA
:1014F000A200C7F89402EDD8A06822680A90D4E947
:101500000C5004F1140E04F1240AD4E903379EE8C8
:1015100040589AE80007CDE9085002A880E8005832
:1015200010460A9ACDE90076CDE90589CDF81CA0D0
:1015300002F0CAF930B1022084F8BD0401200BB0DA
:10154000BDE8F08F002084F83800012084F8BD0445
:10155000606A012802D12046FFF750FF206802F0A0
:10156000A3F900200BB0BDE8F08F0000F0B59DB0EE
:10157000044601A804305821FFF779F92068B0F13A
:10158000A04F01D01DB0F0BD4FF48070019001A8B4
:1015900000F03EF8002818BFFFF7FAFA002743F6DC
:1015A00030061897C4F202063068002440F00100AB
:1015B00030603068C4F2020400F0010018901898FE
:1015C0004FF4E85018900220CDE9190703201B9032
:1015D0000A2018AD1C9020462946FFF785FC4FF4E1
:1015E0000070CDE91807204629461A97FFF77CFCC2
:1015F000706840F0800070600097706940F480402F
:101600007061706900F48040009000981DB0F0BDDA
:101610002DE9F04381B00446006843F68C06C1070B
:10162000C4F2020604D14FF0000981070CD415E082
:101630003168A26B21F0C06111433160B2FA82F1CE
:101640004FEA5119810709D53168E26B21F0C05189
:1016500011433160002A08BF4FF00109410705D44A
:101660004FF00008010712D420E000BF3168226B60
:1016700021F4401111433160B2FA82F14FEA51185E
:10168000B2F5801F08BF4FF0010901070ED5316880
:10169000626B21F440011143B2F5800F316008BF45
:1016A0004FF00109002A08BF4FF0010881065AD502
:1016B0000020009056F84C0C47F2000740F0805094
:1016C00046F84C0C56F84C0CC4F2000700F0805061
:1016D00000900098386840F480703860FFF7DEFCB6
:1016E000054600BF3868C00506D4FFF7D7FC401B8D
:1016F0000228F7D93AE100BF56F81C0C10F44070EC
:1017000017D0216C01F44071884212D056F81C0C9D
:1017100040F64061C4F24721012220F440700A6083
:1017200000220A6046F81C0C56F81C0CC00740F05A
:1017300071812068216C56F8842C4FF6FF4701F424
:10174000407322F4F812C0F6FF770F40B3F5407FE4
:1017500008BF3A4346F8842C56F81C2C6FF31F310F
:10176000114346F81C1CC1060AD4010613D44106D5
:1017700019D4C1051FD481052AD4410530D438E0DD
:1017800094F8580040F64061C4F24721C1F8A00324
:1017900020680106EBD5B168E26C21F440011143E9
:1017A000B1604106E5D5B168A26C21F080611143BA
:1017B000B160C105DFD5B168626D21F000611143F0
:1017C000B160B2F1006F08BF4FF001088105D4D5B8
:1017D000B168626C21F080511143B160410508D5B8
:1017E000B168226D21F000511143B2F1005FB16088
:1017F0001ED0B9F1000F1BD1B0F5006F18D0B8F1B1
:10180000000F4FF0000000F017816827C4F247274F
:10181000B860FFF743FC054656F88C0C800040F199
:10182000A980FFF73BFC401B0228F5D99EE000BFD2
:1018300040F26809C4F247290020C9F80000FFF708
:101840002DFC054656F88C0C000105D5FFF726FC4B
:10185000401B0228F6D989E02068C10701D0A16B9E
:1018600019B1810714D5E16B91B956F8081C56F8E7
:10187000082CD4E9013501F4403102F070621943BB
:101880006769114341EA851141EA077146F8081C6E
:10189000410703D5216BB1F5801F05D001071FD586
:1018A000616BB1F5800F1BD156F8081C56F8082C57
:1018B000D4E9013701F4403102F0E04219432569CF
:1018C000114341EA871141EA0561D4F828C046F87E
:1018D000081C3168ACF1010221F01F011143316095
:1018E00041051FD5216DB1F1005F1BD1271D56F8B1
:1018F00008CC56F8082CA8CFFF034FF6FF7127EA53
:1019000001014FF0C06702F0E04207EA4C2707F1FF
:1019100000771A433A43A1F5803142EA8512114318
:1019200046F8081C000510D5271D8FCF40EA81100E
:10193000D1034FF6FF729143A1F5803140EA036075
:10194000084340EA077046F8080C0120C9F8000077
:10195000FFF7A4FB054600BF56F88C0C00013FF5CD
:101960004EAFFFF79BFB401B0228F5D9032001B0C7
:10197000BDE8F0832068410701D5216B19B101074B
:101980001AD5616BC1B956F8041CD4E9062301F4D9
:101990004031656A114341EA831141EA0561D4F897
:1019A0002CC046F8041C31686FF0FF0221F4F85196
:1019B00002EB0C2211433160C00516D5606DB0F109
:1019C000006F12D156F8040C226AD4E9061300F015
:1019D0007060D2034FF6FF75AA430843A2F5803228
:1019E00040EA8310104346F8040C0120B860FFF76A
:1019F00055FB044656F88C0C800007D4FFF74EFBCD
:101A0000001B0328F6D3032016E000BF002001B01E
:101A1000BDE8F083FFF742FB054641F2883700BF7F
:101A200056F81C0C80073FF584AEFFF737FB401BD0
:101A3000B8424FF00300F3D901B0BDE8F0830000D5
:101A40002DE9F041002800F08B8043F60808C4F22D
:101A500002080446D8F8F8030D4600F00F0088424B
:101A600007D288F8F853D8F8F80300F00F00A8421E
:101A700076D12068810717D5410705D5D8F8001021
:101A800041F4E051C8F80010010705D5D8F800105E
:101A900041F46041C8F80010D8F80010A26821F0A5
:101AA000F0011143C8F80010C0073FD1D8F8F8037F
:101AB00000F00F00A84207D988F8F853D8F8F803C7
:101AC00000F00F00A8424BD12068410707D5D8F895
:101AD0000010E26821F4E0511143C8F8001000073B
:101AE00008D5D8F80000216920F4604040EAC10020
:101AF000C8F8000000F07CF8D8F8001044F6654201
:101B0000C1F30311C0F60002515C40F2080220FA52
:101B100001F140F20400C2F200000068C2F20002CB
:101B20001160FFF7DBFB0020BDE8F0816068811EDB
:101B3000022907D258F8081C89015CBF0120BDE8C2
:101B4000F08111E0012807D158F8081C89035CBF17
:101B50000120BDE8F08107E058F8081C890703D48C
:101B60000120BDE8F08100BFD8F8001021F003018A
:101B70000843C8F80000FFF791FA064641F288379B
:101B8000D8F80000616800F00C00B0EB810F8DD038
:101B9000FFF784FA801BB842F2D90320BDE8F08138
:101BA00040F2080043F60801C2F20000C4F202014C
:101BB0000068096844F67542C1F38221C0F600024C
:101BC000515CC8407047000040F2080043F608012D
:101BD000C2F20000C4F202010068096844F67542CE
:101BE000C1F34231C0F60002515CC84070470000AA
:101BF00010B543F60404C4F202046068C0F3810126
:101C000042F20040C0F2F400DFE801F0440208189C
:101C100041F20020C0F27A0010BD00BF216801F03F
:101C20003F02216823684902C3F3881116D4A1FB3F
:101C300000010023FEF75AFB17E000BF216801F006
:101C40003F02216823684902C3F3881116D4A1FB1F
:101C500000010023FEF74AFB17E000BF41F200201D
:101C6000C0F27A004843B0FBF2F021680222C1F3CF
:101C7000014102EB4101B0FBF1F010BD41F2002047
:101C8000C0F27A004843B0FBF2F02168C1F3027160
:101C9000B0FBF1F010BD00002DE9F04182B000284A
:101CA00000F096800446007843F60006C007C4F2B0
:101CB00002062BD0B06800F00C00042820D0B068D9
:101CC00000F00C00082802D17068400218D4B068F7
:101CD00000F00C000C2802D17068400210D460683B
:101CE000B0F5803F07D0B0F5A02F40F03B813068C1
:101CF00040F480203060306840F4803030603BE158
:101D00003068800302D56068002861D020788007A1
:101D100022D5B06810F00C0F11D0B06800F00C00A4
:101D2000082802D17068400209D5B06800F00C00A4
:101D30000C2840F09F807068400200F19B80306862
:101D4000800702D5E068012842D13068216920F07F
:101D5000F80040EAC1003060207800073CD42078C9
:101D6000400751D4A56985B3B06800F00C0008287D
:101D700040F0A880012D2BD07068E16900F480024A
:101D80008A4225D1216A00F03F028A4220D147F6DB
:101D9000C071626A0140B1EB821F19D1A16A4FF68E
:101DA000FF73C903994300F44032A1F580318A42A0
:101DB0000ED1E16A00F07062B2EB016F08D1216BC5
:101DC00000F0E040B0EB017F02D1002034E100BF21
:101DD000012002B0BDE8F0816069002840F20000F7
:101DE000C4F247205ED00121C0F8801EFFF756F9EB
:101DF000054600BF706F8007B1D4FFF74FF9401B55
:101E00000228F7D9C5E000BF306C10F080580AD125
:101E100000200190306C40F080503064306C00F055
:101E200080500190019847F20007C4F2000738681B
:101E3000C00511D4386840F480703860FFF72EF97F
:101E4000054600BF3868C00506D4FFF727F9401BD8
:101E50000228F7D99DE000BFA068012805D0052819
:101E600052D1306F40F004003067306F40F0010015
:101E7000306753E0E068002860D00020C4F24720BB
:101E800001210160FFF70AF9054600BF30688007AD
:101E90003FF55BAFFFF702F9401B02284FF003004C
:101EA000F4D9C9E00021C0F8801EFFF7F7F8054615
:101EB000706F80077FF553AFFFF7F0F8401B0228E3
:101EC000F6D966E00027C4F2472700203866FFF7FE
:101ED000E5F8022D05460BD1306880015ED5FFF78D
:101EE000DDF8401B02284FF00300F5D9A4E000BF45
:101EF000306880017FF569AFFFF7D0F8401B0228FA
:101F00004FF00300F4D997E0316F002821F0010170
:101F10003167316F21F00401316763D0FFF7BEF8FC
:101F2000054641F2883700BF306F80076CD4FFF759
:101F3000B5F8401BB842F7D92BE000BF0020C4F22F
:101F4000472000210160FFF7A9F8054630688007A7
:101F50007FF502AFFFF7A2F8401B02284FF0030005
:101F6000F4D969E03168002821F4803131603168AA
:101F700021F48021316051D0FFF790F8054600BF71
:101F8000306880033FF5C2AEFFF788F8401B642835
:101F9000F6D9032002B0BDE8F08100BF04F11C05B2
:101FA0002FCD246B084340EA8210D9034FF6FF720D
:101FB0009143A1F5803140EA0560084340EA04708E
:101FC000706001203866FFF769F8044630688001C8
:101FD0003FF5FBAEFFF762F8001B02284FF003004D
:101FE000F4D929E0FFF75AF8054641F2883700BFD7
:101FF000306F800708D5FFF751F8401BB8424FF00B
:102000000300F5D918E000BFB8F1000F7FF4AAAEC5
:10201000306C20F080503064A4E600BFFFF73EF83B
:102020000546306880037FF571AEFFF737F8401B37
:1020300064284FF00300F4D902B0BDE8F08100003D
:1020400070B538B10446406A30B10020206104F117
:10205000140007E0012070BD6068B0F5827F03D0F6
:1020600004F11C00002101600026A66294F85100D2
:1020700020B9204684F8506000F03CF8022084F833
:10208000510094E80F0001F48271056802F40442E3
:1020900025F040050560114403F4006223691144F2
:1020A00003F002026369114403F00102A369E569C8
:1020B000114403F40072114405F03802256A1144FA
:1020C00005F08002A56A114305F400521143016036
:1020D000626A042101EA134102F0100211444160D6
:1020E000C16921F40061C1610120666584F8510075
:1020F000304670BD80B586B0016843F20000C4F27E
:102100000100814202D006B080BD00BF002143F62D
:1021100030020191C4F20202536900F5504043F4C9
:1021200080535361536903F480530193019B0191E0
:10213000136843F001031360126802F00102019278
:10214000019AE02201920222CDE9022103210491A9
:102150000521059101A9FEF7C7FE06B080BD00006C
:102160002DE9F04381B0044640681D461746B0F59E
:10217000827F0E4601D1A068E0B394F85000012898
:1021800004D1022001B0BDE8F08300BF4FF0010987
:1021900084F85090FEF782FF94F85110012927D15E
:1021A0008046002E4FF0010018BF002F00F0C980BC
:1021B0000420002184F851006165A663A787E787A2
:1021C0002163A186E186A2682068B2F5004F2164F0
:1021D00061644BD00168490653D5E168E08F00295E
:1021E00057D0002800F08680681C1CD12DE000BF6D
:1021F0000220A6E0042084F85100204631463246F1
:102200003B46009500F0D0F901B0BDE8F08300BF77
:10221000C068A16B21F8020BA163E08F0138E08751
:10222000E08F002866D020688168C907F0D1FEF7EA
:1022300035FFA0EB0800A842F2D3032081E000BFE5
:10224000FEF72CFFE08F002854D020688168C90772
:10225000F6D0C068A16B21F8020BA163E08F0138B2
:10226000E087E08F0028F0D144E000BF016821F052
:1022700040010160016821F4804101600168490664
:10228000ABD4016841F040010160E168E08F0029B2
:10229000A7D178B3681C0CD11CE000BF007BA16BF8
:1022A0000870A06B0130A063E08F0138E087E08FF9
:1022B00000B320688168C907F0D1FEF7EFFEA0EBFC
:1022C0000800A842F3D303203BE000BFFEF7E6FE80
:1022D000E08F78B120688168C907F7D0007BA16BD7
:1022E0000870A06B0130A063E08F0138E087E08FB9
:1022F0000028EFD16068B0F5827F0ED1A068B0F5FC
:10230000004F02D0B0F5806F0AD12168B0F5806F20
:102310000A6822F040020A6002D12046012101E051
:10232000204680212A46434600F0D8FF28B1606D40
:1023300040F02000606520206065606D002818BFB7
:102340000120002184F8519084F8501001B0BDE8BC
:10235000F08300002DE9F04383B0044690F850006C
:10236000012803D1022003B0BDE8F0834FF001093A
:102370001D4616460F4684F85090FEF78FFE94F8DF
:102380005110012944D18046002F4FF0010018BFA1
:10239000002E00F0D6800320002184F851006165F2
:1023A0002763A686E686A163A187E187A0682164EA
:1023B000B0F5004F2068616407D1016821F0400149
:1023C0000160016841F4804101600168490603D45D
:1023D000016841F0400101606168731EE268B1FA72
:1023E00081F1B3FA83F349095B09B2F5006F41EA61
:1023F00003013DD131B137F8021BC1602763E08E84
:102400000138E086E08E00286CD0681C0DD11EE0FB
:10241000022096E0216B31F8022BC2602163E08E2E
:102420000138E086E08E00285CD02068816889074A
:10243000F0D4FEF733FEA0EB0800A842F2D303204D
:102440007FE000BFFEF72AFEE08E00284AD0206819
:1024500081688907F6D5216B31F8022BC2602163B0
:10246000E08E0138E086E08E0028F0D13AE000BF2F
:1024700039B139780173206B01302063E08E013867
:10248000E086E08E70B3681C0BD11BE0216B0978ED
:102490000173206B01302063E08E0138E086E08E0E
:1024A00000B3206881688907F0D4FEF7F7FDA0EB40
:1024B0000800A842F3D3032043E000BFFEF7EEFD7F
:1024C000E08E78B1206881688907F7D5216B09789B
:1024D0000173206B01302063E08E0138E086E08ECE
:1024E0000028EFD140F20800C2F20000006849F66F
:1024F0008171C1F25E61A0FB0101480D4FF47A7158
:10250000484302906068B0F5827F23D12046802145
:102510002A46434600F0E2FE28B1606D40F02000FC
:10252000606520206065A06838B9002001902068AF
:10253000C1680191806801900198606D002818BF02
:102540000120002184F8519084F8501003B0BDE8B8
:10255000F08300BF02980028E5D00298013802906D
:10256000206880680006DED502980028DBD002983B
:1025700001380290206880680006D4D502980028AF
:10258000D1D0029801380290206880680006CAD530
:1025900002980028C7D0029801380290206880680D
:1025A0000006D7D4BFE700002DE9F04383B004460E
:1025B00090F85000012803D1022003B0BDE8F08359
:1025C00001201E4615460F4684F85000FEF766FDB2
:1025D00094F851108146012940F09880002F4FF067
:1025E000010018BF002D00F09E80002E00F09B809F
:1025F00094F85100002104281CBF052084F85100E4
:102600006165A563E687A6872763E6862068A686B8
:10261000216461640168490603D4016841F0400106
:1026200001606168731EE268B1FA81F1B3FA83F365
:10263000DDF8288049095B09B2F5006F41EA030122
:102640007AD131B137F8021BC1602763E08E0138BF
:10265000E086012518F1010031D101E0FEF71EFDF1
:10266000E08E18B9E08F002800F0D08020688168E3
:1026700089070CD5E18E51B1012D08D1216B0025C0
:1026800031F8022BC2602163E18E0139E186816855
:10269000C907E3D0E18F0029E0D0C068A16B012514
:1026A00021F8020BA163E08F0138E087D6E700BF75
:1026B000FEF7F4FCA0EB0900404580F0FD80E08EC1
:1026C00018B9E08F002800F0A18020688168890790
:1026D0000CD5E18E51B1012D08D1216B002531F8C7
:1026E000022BC2602163E18E0139E1868168C9074E
:1026F000DED0E18F0029DBD0C068A16B012521F875
:10270000020BA163E08F0138E087D1E76068B0F584
:10271000827F07D1A06800284FF0020008BF04297B
:1027200001D15BE70220012184F85110002184F8D7
:10273000501003B0BDE8F08339B139780173206BD4
:1027400001302063E08E0138E086012518F1010098
:1027500033D101E0FEF7A2FCE08E10B9E08F002833
:1027600054D02068816889070ED5E18E61B1012DB2
:102770000AD1216B002509780173216B2068013192
:102780002163E18E0139E1868168C907E2D0E18FDA
:102790000029DFD0C068A16B01250870A06B013053
:1027A000A063E08F0138E087D4E700BFFEF776FC36
:1027B000A0EB0900404580F08180E08E08B9E08FF1
:1027C00020B32068816889070ED5E18E61B1012DA3
:1027D0000AD1216B002509780173216B2068013132
:1027E0002163E18E0139E1868168C907DED0E18F7E
:1027F0000029DBD0C068A16B01250870A06B0130F7
:10280000A063E08F0138E087D0E700BF40F2080006
:10281000C2F20000006849F68171C1F25E61A0FB5E
:102820000101480D4FF47A71484302906068B0F599
:10283000827F0FD12046802142464B4600F04EFD5C
:1028400060B3606D40F0200060652020606501206D
:1028500069E700BF029808B3029801380290206827
:10286000806800061AD50298C0B10298013802901B
:1028700020688068000611D5029878B10298013866
:10288000029020688068000608D5029830B102984E
:1028900001380290206880680006DBD4A068002818
:1028A0004FF000007FF43FAF01902168CA680192A9
:1028B00089680191019936E7032034E7032032E764
:1028C000411E0020B0EB116F1CBF012070474EF27B
:1028D0001002CEF2000251604EF62351CEF20001FA
:1028E000F0230B7007219060116070477047000063
:1028F00070470000B0B590F83C20012A04BF0220C8
:10290000B0BD01F108053CCDD1E900CE23F47C53E4
:1029100022F470521A432EF4F0431A432CF4E0438D
:102920001A4324F4C0431A432A43C96922F480425B
:10293000036811435964002180F83C100846B0BD7B
:1029400010B590F83C20012A4FF0020251D080F8D7
:102950003D200268D2F804E0D2F808C00C682EF0DE
:102960007003234341F2FF74C4F20004A242536097
:102970000EDC40F2FF73C4F200039A4216DCB2F19F
:10298000804F2BD040F20043C4F2000324E000BF8C
:1029900040F2FF33C4F201039A4213DC41F6000314
:1029A000C4F200039A4219D0002313E040F600035A
:1029B000C4F200039A4211D040F60043C4F200036F
:1029C0000AE000BF44F20003C4F201039A4205D0BA
:1029D00040F20043C4F201039A4204D149682CF04A
:1029E0008003194391600121002280F83D1080F896
:1029F0003C20104610BD0000002804BF0120704795
:102A000010B5044690F83D0028B9002084F83C0039
:102A1000204600F01FF8022084F83D002068211DA8
:102A200000F03CFD012084F8460084F83E0084F864
:102A30003F0084F8400084F8410084F8420084F8A4
:102A4000430084F8440084F8450084F83D000020E9
:102A500010BD000080B582B0006841F20001C4F2F0
:102A6000000188421CBF02B080BD0020019043F6E7
:102A70004000C4F202000168002241F01001016030
:102A80000068002100F01000019001983620FEF748
:102A900079FC362002B0BDE88040FEF75FBC000044
:102AA0007047000010B5016804460869800744BFFC
:102AB000C8685FEA807039D40869400744BFC868B5
:102AC0005FEA40703ED40869000744BFC8685FEA07
:102AD000007045D40869C00644BFC8685FEAC0609A
:102AE0004AD40869C0071CBFC8685FEAC07051D1EA
:102AF0000869000644BFC8685FEA006052D40869EC
:102B0000400644BFC8685FEA406053D40869800645
:102B100046BFC8685FEA806010BD6FF020022046A3
:102B20000A61BDE81040FFF7E3BE00BF6FF002008E
:102B30000861012020778869800743D02046FFF78D
:102B4000AFFF45E06FF0040008610220207788693C
:102B500010F4407F40D02046FFF7A2FF42E000BFC4
:102B60006FF00800086104202077C86980073DD015
:102B70002046FFF795FF3FE06FF010000861082046
:102B80002077C86910F4407F3AD02046FFF788FFCD
:102B90003CE000BF6FF001000861204600F0C4F97E
:102BA0002168A5E76FF0800008612046FFF79EFED0
:102BB0002168A4E76FF040000861204600F0B6F9F4
:102BC0002168A3E7204600F04FF8204600F0AAF95C
:102BD0002168002020776FE7204600F045F8204666
:102BE00000F0A0F92168002020776CE7204600F073
:102BF0003BF8204600F096F921680020207769E72D
:102C0000204600F031F8204600F08CF921680020C1
:102C1000207766E780B586B001680020C4F2010025
:102C2000814201D006B080BD002143F630020191FF
:102C3000C4F20202136800F5883043F010031360F9
:102C4000126802F010020192019A4FF40072019290
:102C50000222CDE9022104910121059101A9FEF78B
:102C600043F906B080BD0000704700002DE9F04335
:102C700090F83C30012B04BF0220BDE8F0834FEAFE
:102C8000B202032A00F2FC80DFE802F0023E7EBEC0
:102C9000036840F200471A6A43F4806522F001029B
:102CA0001A621C6A1A46D3F804E052F818CF8E68EC
:102CB00024F00204C4F20107BD4244EA060405D12F
:102CC000CE6824F00C0426F0040634430E68BD429E
:102CD00007D1D1E905572EF4407E45EA0E0545EAB5
:102CE000070E2CF073073743C3F804E09F614F6869
:102CF00009695F631C629F6947F008079F619F69CC
:102D000027F004079F61B1E0036840F200481A6AA7
:102D100043F4806522F010021A621C6A1A46D3F846
:102D200004C052F818EF8F6824F02004C4F20108A0
:102D3000454544EA071407D1CF686FF0400624F0F8
:102D4000C00406EA07163443D1F80090454506D181
:102D5000D1E905562CF440672E4347EA860C2EF441
:102D6000E64747EA0927C3F804C09F614F6809692D
:102D70009F631C629F6947F400679F619F6927F406
:102D800080679F6171E000BF036840F200481A6AE3
:102D900043F4806522F480721A621C6A1A46D3F8E2
:102DA00004C052F81CEF8F6824F40074C4F20108C8
:102DB000454544EA072408D1CF6840F2FF463F0268
:102DC00024F4406427EA06063443D1F800904545D0
:102DD00006D1D1E905562CF440572E4347EA061C8C
:102DE0002EF0730747EA0907C3F804C0DF614F6894
:102DF0000969DF631C62DF6947F00807DF61DF698B
:102E000027F00407DF6131E0036840F200451A6AE9
:102E100043F4806722F480521A621A46D3F820C025
:102E20005C6852F81CEFD1F800808E68C4F201058E
:102E3000AF4204D14D6924F4804444EA85142CF453
:102E4000005747EA06372EF4E64646EA08265C6055
:102E5000DE614E6809691E641F62DF6947F400671E
:102E6000DF61DF6927F48067DF61090213681943B6
:102E700011600021002280F83C200846BDE8F08364
:102E80000121002280F83C200846BDE8F0830000C4
:102E9000002804BF0120704710B5044690F83D009B
:102EA00028B9002084F83C00204600F01FF80220DA
:102EB00084F83D002068211D00F0F0FA012084F81C
:102EC000460084F83E0084F83F0084F8400084F80F
:102ED000410084F8420084F8430084F8440084F8F8
:102EE000450084F83D00002010BD000081B000685E
:102EF0000021C4F20101884202D001B0704700BF36
:102F00000020009043F64400C4F20200016841F042
:102F100001010160006800F001000090009801B01C
:102F200070470000704700007047000070470000C5
:102F3000002804BF0120704710B5044690F83D00FA
:102F400028B9002084F83C00204600F021F8242015
:102F500084F83D002068C16821F40051C16020461A
:102F600000F03AFB2068016921F490410161416958
:102F700021F02A014161C16841F40051C160002083
:102F80002021206484F83D1084F83E1010BD00001C
:102F9000F0B585B00446016844F60000C4F20000B4
:102FA000814201D005B0F0BD002643F63001009605
:102FB000C4F202010A69032742F480220A610A6905
:102FC00000F5E23002F480220092009A00960A682E
:102FD00042F008020A60096801F0080100910099B6
:102FE0004FF4407100910221CDE9011607210491AF
:102FF00069460397FDF778FF40F2C80546F258008E
:10300000C2F20005C4F2020040224FF0006185E8E0
:1030100047004FF4803005F120024FF48063042113
:1030200083C22846C5E90436C5E90666C5E90B66CC
:10303000FDF794FE002818BFFDF7AAFD6563AC6399
:1030400005B0F0BD2DE9F04381B0044690F83D0095
:1030500020280DD10F4600294FF0010000F0DD803F
:103060001646002A00F0D98094F83C00012803D1CC
:10307000022001B0BDE8F083012084F83C0000206C
:10308000206421201D4684F83D00FEF707F8A68441
:10309000E684A1680646B1F5805F03D12069002867
:1030A00000F01081B8460027002084F83C00E18C35
:1030B0002068002900F0908005F101090DE000BFB3
:1030C000B8F1000F28D018F8011B4160E18C0139DC
:1030D000E184E18C002900F07F8001680906EFD4CB
:1030E000B9F1000F0AD0FDB1FDF7D8FF801BA8424F
:1030F0001AD8206801680906F6D5E1E701680906D3
:10310000DED4016809065CBF01685FEA0161D7D4BB
:1031100001680906F2D5D3E737F8021B4FF0000823
:103120006FF35F21D1E700BF206850E8030F2168EB
:1031300020F4D07041E80302BAB3206850E8030FCE
:10314000216820F4D07041E8030272B3206850E88F
:10315000030F216820F4D07041E803022AB32068ED
:1031600050E8030F216820F4D07041E80302002AE0
:10317000DAD11AE0206850E8050F216820F001003C
:1031800041E80502DAB1206850E8050F216820F017
:10319000010041E8050292B1206850E8050F21685E
:1031A00020F0010041E805024AB1206850E8050F0F
:1031B000216820F0010041E80502002ADAD1202030
:1031C00084F83D0084F83E00002084F83C00032091
:1031D00001B0BDE8F08300BF0168490619D4FDB114
:1031E000691C0DD10168490613D4016849065CBF0A
:1031F00001685FEA41610CD401684906F2D508E034
:10320000FDF74CFF801BA8420AD8206800684006E2
:10321000F6D5202084F83D00002001B0BDE8F08301
:10322000206850E8030F216820F4D07041E80302C1
:10323000E2B3206850E8030F216820F4D07041E821
:1032400003029AB3206850E8030F216820F4D0707D
:1032500041E8030252B3206850E8030F216820F4CC
:10326000D07041E80302002ADAD11FE0206850E85C
:10327000050F216820F0010041E80502002A9ED0D8
:10328000206850E8050F216820F0010041E80502A0
:10329000002A3FF494AF206850E8050F216820F021
:1032A000010041E80502002A3FF489AF206850E898
:1032B000050F216820F0010041E80502002AD5D160
:1032C0007DE700BF4FF00008EEE60000FEE70000DB
:1032D000FEE70000FEE70000704700002DE9F04126
:1032E00082B01E4690460D460446FDF7D7FE301AC2
:1032F00000EB0807FDF7D2FE40F20801C2F2000120
:103300000968C1F3CB317943019121688A682A4069
:10331000AA4227D1064618F101001FD0FDF7BEFED4
:10332000801BB84222D2019801990028A1F1010125
:1033300001912168896808BF074601EA0500A84293
:10334000ECD00FE088682840A8420BD1886828405C
:10335000A84207D188682840A84203D1886828403D
:10336000A842EFD0002002B0BDE8F081D4E900010E
:103370004268B1F5827F22F0E00242600AD1A16882
:10338000B1F5004F02D0B1F5806F03D1016821F093
:1033900040010160A16AB1F5005F07D1016821F425
:1033A00000510160016841F400510160012084F87E
:1033B0005100002084F85000032002B0BDE8F081E5
:1033C00070470000FDF760BFB0B594B0002443F62D
:1033D0004000CDE90B44CDE909440694CDE904440D
:1033E000CDE902440194C4F202000168022541F0D3
:1033F00080510160006800F080500190019847F210
:1034000000000194C4F20000016841F440410160F1
:10341000006800F4404001900198012007904FF4AB
:10342000A02008904FF480000E9004200F90A82058
:10343000CDE910050720CDE9120507A80D95FEF787
:103440002BFC28B1EFF3108072B600BFFEE700BF7F
:103450000F20CDE902054FF4A05005904FF48050A5
:10346000069002A805210494FEF7EAFA20B1EFF3D2
:10347000108072B6FEE700BF14B0B0BD4EF68850A3
:10348000CEF20000016841F4700101607047000055
:1034900040F22870C2F20000FFF704BB10B540F6FE
:1034A000FF3E0368C4F2000E40F2004C7045C4F2C7
:1034B000010C27DCB0F1804F31D040F20042C4F261
:1034C000000290422BD040F60002C4F2000290426B
:1034D00025D041F6FF72C4F20002904229DC70450B
:1034E0003CDCB0F1804F5FD040F20042C4F20002F9
:1034F000904259D040F60002C4F20002904253D0EC
:1035000056E000BF40F60042C4F20002904206D0EE
:10351000604504D00022C4F201029042D9D14A6829
:1035200023F07003134341F6FF72C4F2000290428D
:10353000D5DD43F6FF72C4F20102904222DC42F272
:103540000002C4F2000290422ED00022C4F2010216
:10355000904229D0604527D02AE000BF40F60042C3
:10356000C4F2000290421FD041F60002C4F20002F1
:10357000904219D041F60042C4F20002904213D0AA
:1035800016E000BF44F20002C4F2010290420BD0E8
:1035900044F60002C4F20102904205D044F2004217
:1035A000C4F20102904203D1CA6823F4407313436A
:1035B00023F080024B69D1F800E08C681A43026066
:1035C000C46240F48062C0F828E0624504BF096923
:1035D00001630121416110BD10B504460068D4E9C2
:1035E00002C22369016921F44051114301616269FA
:1035F00043EA0C01E3691143C268194349F20C63C1
:103600009A431143C1604169A26921F4407141F2BA
:103610000043114340F48062C4F201039A424161C5
:1036200002D1FEF7D1FA01E0FEF7BAFAE169636868
:103630001922B1F5004FA0FB020123D15A00DB0F84
:10364000FCF754FE48F21F51C5F2EB11A0FB012319
:103650005A094FF69C73C0F6FF7303F1805302FBC7
:103660000300322303EBC000A0FB01014FF4F8700C
:1036700000EA111000EB0210C1F342110844216866
:10368000886010BD9A009B0FFCF730FE48F21F5176
:10369000C5F2EB11A0FB01235A094FF69C73C0F64B
:1036A000FF7302FB0300322303EB0010A0FB0101B8
:1036B000F02000EA511000EB0210C1F3431108445E
:1036C0002168886010BD000082B00499DDF808C050
:1036D000012940F64051C0F203016FD1826B4FF6D1
:1036E000BF7322F480328263C268CFF6BD731A4082
:1036F000C260C2680B9B22F44012012BC26003D14E
:10370000C26842F48012C26000220092009A013224
:103710000092009A8A4200F2A9800269002A1ED40F
:10372000009A01320092009A8A4200F29F80026958
:10373000002A14D4009A01320092009A8A4200F2C0
:1037400095800269002A0AD4009A01320092009AF8
:103750008A4200F28B800269B2F1FF3FD6DC002280
:103760000092026942F001020261009A0132009265
:10377000009A8A427AD80269D2071AD0009A013296
:103780000092009A8A4271D80269D20711D0009A39
:1037900001320092009A8A4268D80269D20708D0A2
:1037A000009A01320092009A8A425FD80269D207D9
:1037B000DBD10021BCF1010F72D169E0C268089B26
:1037C00042F04002C26000220192019A013201924D
:1037D000019A8A4250D80269002A1BD4019A013208
:1037E0000192019A8A4247D80269002A12D4019AAA
:1037F00001320192019A8A423ED80269002A09D414
:10380000019A01320192019A8A4235D80269B2F1D5
:10381000FF3FDADC00220192026942F001020261FC
:10382000019A01320192019A8A4225D80269D2078F
:103830001AD0019A01320192019A8A421CD8026977
:10384000D20711D0019A01320192019A8A4213D80B
:103850000269D20708D0019A01320192019A8A4284
:103860000AD80269D207DBD1002106E00321BCF1AE
:10387000010F15D10CE000BF0321826B002B14BF98
:1038800022F4803242F480328263BCF1010F07D10E
:10389000826842F006028260826842F02002826002
:1038A000084602B0704700000146D0F8000E20F034
:1038B0000300C1F8000ED1F8040840F00202002015
:1038C000C1F80428704700002DE9F04F83B0DDF8FF
:1038D0004C800E9F0022B8F1000FC0F80421C0F800
:1038E0000821C0F80C21C0F81021C0F81421C0F83C
:1038F0001821C0F81C21C0F82021C0F82421C0F8EC
:103900002821C0F82C21C0F83021C0F83421C0F89B
:103910003821C0F83C2107D0826B00F5006B42F4DF
:103920000012826314E000BFD0F8042800F5006B99
:1039300042F00202C0F80428826B22F40012826373
:10394000026842F040020260066846F080060660A7
:103950000026C0F8006ED0F80068012FC0F800689B
:1039600006D1DBF80070002B18BF47F0010703E019
:10397000DBF8003043F00307DDF83CE0DDF8309081
:1039800040F64055C0F203050023C0F800780193CB
:10399000019B01330193019BAB4249D80369002B82
:1039A0001BD4019B01330193019BAB4240D80369B7
:1039B000002B12D4019B01330193019BAB4237D8FA
:1039C0000369002B09D4019B01330193019BAB4296
:1039D0002ED80369B3F1FF3FDADC002301934FF4E3
:1039E00084630361019B01330193019BAB421FD8A8
:1039F00003699B061AD5019B01330193019BAB42DE
:103A000016D803699B0611D5019B01330193019BD5
:103A1000AB420DD803699B0608D5019B0133019386
:103A2000019BAB4204D803699B06DBD4002400E071
:103A3000012400230293029B01330293029BAB42B9
:103A400048D80369002B1BD4029B01330293029BCD
:103A5000AB423FD80369002B12D4029B013302937F
:103A6000029BAB4236D80369002B09D4029B013379
:103A70000293029BAB422DD80369B3F1FF3FDADC1E
:103A80000023029310230361029B01330293029BE4
:103A9000AB421FD80369DB061DD5029B013302939D
:103AA000029BAB4216D80369DB0614D5029B013397
:103AB0000293029BAB420DD80369DB060BD5029B38
:103AC00001330293029BAB4204D80369DB06DBD4CB
:103AD00001E000BF01244FF0000A0029CBF810A03C
:103AE000CBF814A0CBF81CA000F00681D0F8003968
:103AF0004FF0006707EA13134FF67F324E1EC0F8EF
:103B00000039C0F810A9C0F808297BD08B1E032B00
:103B100006F003097246009404D22024B9F1000F84
:103B20003FD165E026F0030400234FF0904E4FF69E
:103B30007F384FF0000C00BF00EB0C05D5F8207962
:103B4000043C0EEAE777C5F82079C5F83039C5F8A6
:103B50002889D5F840790CF1800C0EEAE777C5F892
:103B60004079C5F85039C5F84889D5F860790EEA2A
:103B7000E777C5F86079C5F87039C5F86889D5F870
:103B800080790EEAE777C5F88079C5F89039C5F8ED
:103B90008889D1D1DDF84C800CF12004B9F1000FF7
:103BA00026D000F510673D594FF0904C0CEAE575B2
:103BB0003B193D5100244FF67F3EB9F1010F1C61C6
:103BC000C3F808E014D01D6AB9F1020F0CEAE577DA
:103BD0001F621C63C3F828E00AD01F6C4FF09045A9
:103BE00005EAE7771F6400271F654FF67F379F645C
:103BF000DDF83090009C002996464FF67F324FF05A
:103C0000006779D0D0F8003B002E07EA1313C0F804
:103C1000003B4FF00003C0F8103BC0F8082B6BD0FE
:103C20000239032906F0030C04D22023BCF1000F53
:103C30003DD161E0009426F0030400234FF090474B
:103C40004FF67F36002100BF4518D5F8202B043CE5
:103C500007EAE272C5F8202BC5F8303BC5F8286B9F
:103C6000D5F8402B01F1800107EAE272C5F8402B3C
:103C7000C5F8503BC5F8486BD5F8602B07EAE272EF
:103C8000C5F8602BC5F8703BC5F8686BD5F8802B7C
:103C900007EAE272C5F8802BC5F8903BC5F8886B3F
:103CA000D2D1009C01F12003BCF1000F24D000F51B
:103CB0003062D6584FF0904707EAE676D118D650D2
:103CC00000264FF67F33BCF1010F0E618B6013D0DD
:103CD0000A6ABCF1020F07EAE2720A620E638B62A3
:103CE0000AD00A6C4FF0904303EAE2720A640022A1
:103CF0000A654FF67F328A64DBF81010B9F1000FC5
:103D000021F48071CBF810106FF08041C0F818A03A
:103D1000416103D1816941F010018161816943F6FC
:103D20000002C8F23C021143BEF1000F816103D0D2
:103D3000816941F008018161B8F1010F05D1816904
:103D400041F0804141F004018161204603B0BDE8AB
:103D5000F08F00000146806820F0010200208A6098
:103D600070470000B0B50446C06820F0C040E06075
:103D700091B1012926D1E068002540F00050E060B3
:103D80000120FDF79DF86069C00705F1010014D11D
:103D9000312D0546F4D310E0E068002540F0804066
:103DA000E06000BF0120FDF78BF86069C00705F1F6
:103DB000010002D0312D0546F4D33238B0FA80F03C
:103DC0004009B0BD0120B0BDFEE70000AAB041F639
:103DD000000AC4F2020AFDF765FAFFF7F5FA0024BB
:103DE00043F63005CDE909442194C4F20205286860
:103DF000AAF5C05640F0040028602868182100F099
:103E000004002190219821942868002240F020008D
:103E1000286028684FF0180800F0200021902198B1
:103E20002194286840F080002860286800F0800015
:103E3000219021982194286840F00100286028688A
:103E400000F00100219021982194286840F00200A0
:103E50002860286800F002002190219821942868A9
:103E600040F010002860286800F010002190219890
:103E70002194286840F008002860286800F00800B5
:103E8000219021982194286840F0400028602868FB
:103E900000F04000219021983046FDF7F9F8AAF58E
:103EA000A059484644F28101002244F2810BFDF7FB
:103EB000EFF8504640210022FDF7EAF84FF4005099
:103EC00006904FF4881006AFCDE90704AAF580509C
:103ED0003946FDF709F8CDF818804FF00108304653
:103EE0003946CDE907840994FCF7FEFF4846394678
:103EF000CDE906B8CDE90844FCF7F6FF4020CDE94E
:103F0000060850463946CDE90844FCF7EDFF80200D
:103F1000CDE90604504639460894FCF7E5FF0694BF
:103F20002868002140F4001028602868002200F46E
:103F30000010069006980E20FDF724FA0E20FDF7DB
:103F40000DFA40F22810AAF5E031C2F2000048F262
:103F5000A0624FF48043C0F2010280E81600C0E97D
:103F60000343C0E90544C0E90744FDF79DF828B1C3
:103F7000EFF3108072B600BFFEE700BF40F288602A
:103F8000AAF56841C2F200004FF482724FF4007348
:103F9000282780E816000A21C0E90344C0E9054348
:103FA000C761C0E90844C0E90A41FEF749F828B1F1
:103FB000EFF3108072B600BFFEE700BF40F2E06092
:103FC0000021AAF58C32C2F2000014238027CDE92B
:103FD00028110C91C0E90021C0E90213C0E90411C5
:103FE0008761FEF755FF28B1EFF3108072B600BF6E
:103FF000FEE700BF40F2E060C2F2000028A9FEF731
:104000009FFC28B1EFF3108072B600BFFEE700BF3F
:10401000602021900A20229040F2E0600024C2F249
:10402000000021A90022CDE92344CDE925442794AD
:10403000FEF71CFE20B1EFF3108072B6FEE700BF62
:104040004FF400500B9040F2E060C2F2000006A96D
:104050000A94CDE90844CDE906440D94FEF74AFCE4
:1040600020B1EFF3108072B6FEE700BF40F2E060CF
:10407000C2F20000FEF7CEFD40F228700021AAF542
:104080000232C2F200004FF6FF73CDE90611C0E91B
:104090000021C0E902138161FEF7AEFC20B1EFF30D
:1040A000108072B6FEE700BF40F22870C2F2000036
:1040B00006A9FEF745FC28B1EFF3108072B600BFE9
:1040C000FEE700BF40F27008C2F20008AAF5E8312E
:1040D000404640F8141F4FF4E13100240C22C0E99F
:1040E0000114C0E90344C0E90524C461FEF720FFC0
:1040F00020B1EFF3108072B6FEE700BF40F27C10F3
:10410000C2F200004FF0A041062202260125C0E9BC
:104110000012C0E90364C0E90665C0E90844C0E9CB
:104120000B54FDF77FF928B1EFF3108072B600BF92
:10413000FEE700BF00F056FB05200DF117048DF8D7
:104140001700202021468DF8835000F0FFFA4FF031
:10415000000A212021468DF817A000F0F7FA22204E
:1041600021468DF8176000F0F1FAFA208DF817005B
:104170002320214600F0EAFA252021468DF8176019
:1041800000F0E4FA03208DF817002720214600F004
:10419000DDFA83208DF817002C20214600F0D6FA96
:1041A0002D2021468DF8176000F0D0FA08F1140791
:1041B000DBA138460F226423FEF744FF0DF11604FD
:1041C0002E2021468DF8165000F0C0FAD8A13846AE
:1041D0000A226423FEF736FF0DF1830608203146DC
:1041E00000F0F2F99DF8832006ADD4A128461346CD
:1041F000FCF7F4F82846FCF71BFB82B23846294648
:104200006423FEF71FFF0920314600F0DDF99DF819
:104210008320CFA12846FCF7E1F82846FCF708FBED
:1042200082B2384629466423FEF70CFF0A20314645
:1042300000F0CAF99DF88320C9A12846FCF7CEF802
:104240002846FCF7F5FA82B23846294664230497DB
:10425000FEF7F8FE2E2021468DF816A000F076FA23
:1042600040F66400C2F200000438039040F60410E7
:10427000C2F200000438029040F6A410C2F200001E
:1042800040F2707440F6B4090DF1840B40F2FE7AEE
:10429000043828AFC2F20004C2F20009019010E015
:1042A000454655F8142B06AE3046BAA1FCF796F8F1
:1042B0003046FCF7BDFA82B2284631466423FEF749
:1042C000C1FE039E00201425219000BF0E205946F8
:1042D000022200F0D9F92198AAEB000102046FF341
:1042E000DF206FF3DF2148BF4842D8F8082081B2B1
:1042F00046F8041F12FA80F0013DC8F80800E5D125
:1043000046F26761C6F2666150FB01F0C110029E81
:1043100001EBD0701425C8F8080000BF10205946E2
:10432000022200F0B1F92198AAEB000102046FF318
:10433000DF206FF3DF2148BF4842D8F80C2081B25C
:1043400046F8041F12FA80F0013DC8F80C00E5D1D0
:1043500046F26761C6F2666150FB01F0C110019E32
:1043600001EBD0701425C8F80C0000BF122059468C
:10437000022200F089F92198AAEB000102046FF3F0
:10438000DF206FF3DF2148BF4842D8F8102081B208
:1043900012FA80F0C8F81000642046F8041FFCF7F9
:1043A0008FFD013DE2D1D8F8100046F26761C6F2F8
:1043B000666150FB01F0D8E90223C11006AD01EBA4
:1043C000D07628466AA1C8F810600096FCF706F877
:1043D0002846FCF72DFA82B2049829466423FEF79A
:1043E00031FE4FF47A70FCF76BFD002504E000BF4E
:1043F0000435502D3FF454AF0E203946022200F010
:1044000043F9289840F61406AAEB000102046FF362
:10441000DF206FF3DF2148BF484280B2C2F20006BE
:10442000705110203946022200F02EF92898AAEB8C
:10443000000102046FF3DF206FF3DF2148BF484221
:1044400080B249F8050012203946022200F01CF91A
:104450002898AAEB00016FF3DF2102046FF3DF203D
:1044600048BF48427159D8E9022359F80560891AB2
:10447000F21A494302FB021140F6A412C2F20002F2
:10448000D8F81030525986B2D01A00FB001040F60E
:104490005411C2F200014E5100F085FA41EC100BAC
:1044A00000F0F8F951EC100B00F04EFA40F2C07237
:1044B000C2F20002511951F8041C5051084400EB9B
:1044C000D070401006AE605130462FA12246FBF757
:1044D00085FF3046FCF7ACF982B20498314664237C
:1044E000FEF7B0FD6420FCF7EBFC40F20C01C2F2D9
:1044F000000160590968D8F80420884206DD2AB90D
:10450000D8F80020531C0122C8E900328842BFF6C7
:104510006FAF012A04BF0020C8F8040068E700BF9D
:1045200063616C6C2073656C6620746573740A003B
:1045300072656164696E6720780A000078206461A2
:10454000746120282564292830782578290D0A00EF
:1045500079206461746120282564290D0A00000017
:104560007A206461746120282564290D0A00000006
:1045700061766720783A2025642C20793A202564DA
:104580002C207A3A25640A00746F746176653A20AB
:1045900025640A00737465705F636F756E743A20EA
:1045A00025640A0010B50446FCF742F940F2700198
:1045B000C2F20001143182B2084621466423BDE8EC
:1045C0001040FEF73FBD0000B0B582B00024C4F239
:1045D00002040D468DF80700204610210022FCF74A
:1045E00057FD0B208DF8060040F28860C2F20000F3
:1045F0000DF1060101226423FDF7ACFE60B12046F7
:1046000010210122FCF744FD44F68F40C0F6000063
:10461000FFF7C8FFFCF7BCFA40F28860C2F2000066
:104620000DF1070101226423FDF794FE60B12046DD
:1046300010210122FCF72CFD44F68F40C0F600004B
:10464000FFF7B0FFFCF7A4FA40F28860C2F2000066
:10465000294601226423FDF783FD054660B120460B
:1046600010210122FCF714FD44F68540C0F600003D
:10467000FFF798FFFCF78CFA204610210122FCF787
:1046800007FD284602B0B0BD70B582B00024C4F268
:10469000020415460E468DF8070020461021002220
:1046A000FCF7F6FC0B208DF8060040F28860C2F2A1
:1046B00000000DF1060101226423FDF74BFE60B1FD
:1046C000204610210122FCF7E3FC44F68F40C0F69F
:1046D0000000FFF767FFFCF75BFA40F28860C2F268
:1046E00000000DF1070101226423FDF733FE60B1E4
:1046F000204610210122FCF7CBFC44F68F40C0F687
:104700000000FFF74FFFFCF743FA40F28860C2F267
:10471000000031462A466423FDF722FD054660B1BC
:10472000204610210122FCF7B3FC44F68540C0F678
:104730000000FFF737FFFCF72BFA2046102101227B
:10474000FCF7A6FC284602B070BD0000B0B582B0F0
:1047500000240978C4F202048DF806008DF80710D1
:10476000204610210022FCF793FC0A208DF805005A
:1047700040F28860C2F200000DF1050101226423BD
:10478000FDF7E8FD60B1204610210122FCF780FC16
:1047900044F68F40C0F60000FFF704FFFCF7F8F97D
:1047A00040F28860C2F200000DF10601022264238B
:1047B000FDF7D0FD054660B1204610210122FCF72F
:1047C00067FC44F68F40C0F60000FFF7EBFEFCF7F5
:1047D000DFF9204610210122FCF75AFC284602B0DE
:1047E000B0BD0000B0B59AB040F27000C2F2000057
:1047F00000F1140416A1204605226423FEF722FCD2
:1048000001208DF867000DF167010020FFF7DCFE45
:104810009DF86720AD2A09D116A1204609226423FC
:10482000FEF710FC9DF8672015A100E00AA10DF12C
:1048300003052846FBF7D2FD2846FBF7F9FF82B2B5
:10484000204629466423FEF7FDFB1AB0B0BD00BF29
:10485000546573740A00000057726F6E672070729F
:104860006F64756374206964202830782578290D79
:104870000A0000007365656D73206F6B0A0000000D
:104880007469732074686973202830782578290D3D
:104890000A00000000B52DED048BB0EE409AF0EE5A
:1048A000609A83B051EC190B00F0E2F841EC180B60
:1048B00018EE100A18EE901A8DED008B002818BF24
:1048C0000120084320F00040C0F17F6000F1E0408B
:1048D000C00F14D019EE101A19EE900A8DED009B3E
:1048E000002918BF0121084320F00040C0F17F607B
:1048F00000F1E040C00F04BF0120FBF7E7FFB0EE7E
:10490000480A03B0F0EE680ABDEC048B00BD3038F5
:104910000A2801D2012070470020704710B50029F5
:104920000AD00878002807D005487844FCF7E0F85A
:10493000002801D0002010BD0248784410BD0000BE
:10494000920300008A0300004FEA41034FEA5353E9
:10495000A3F58063D3F11E03C8BFD3F1210C0CDD96
:104960004FF0004242EAC12242EA505232FA03FCBE
:104970008CEAE17CACEBE1707047102BC4BF0020E7
:10498000704703F5787CBCF1FF3F04D06FF0004224
:1049900082EA2100704770B500F01CF8499224802B
:1049A00000207047F2E710F0004248BF4042B0FAE2
:1049B00080F310FA03F10AD0C3F11D0303F58063FD
:1049C00002EB03524FEA415002EBD12170474FF006
:1049D000000070470EF1020E2EF0030E5EF8046B1D
:1049E000364205D4012A43EB030515F5001F12D802
:1049F000012841EB010C1CF5001F0CD80ED14FEA29
:104A0000D17C0CEB4C0C0CF1020C15F5001F08BF0F
:104A10004CEBD37C04E04FF0080C01E04FEAD37C70
:104A20000CEB4C0526FA05F606F00706B6F1040C69
:104A300006D20EEB860CBDE870404CF0010C6047CE
:104A4000DFE80CF0090B02024FF00041A1F5002154
:104A50004FF0000070BD19461046012851EB0104CB
:104A600018BFD4F5001484BF002001F0004170BDD0
:104A70002DE9F04101F5801CBCF5001FC0F2A980B2
:104A80004FEA115C21EA0C5141F480110CF1FD0C4C
:104A90005FEA5C0C0CF5C07C01D3400049418902FF
:104AA00041EA905187022EA48E0EA45D0A0C04FBED
:104AB00004F602FB06F6C6F14046A4FB0662F60DBC
:104AC00046EA422606FB06F4A4FB01235242C3F148
:104AD000404338BF5B1EA6FB02420024E6FB0324D2
:104AE000D20B42EA4446A6FB0623A1FB02E2A3FB4B
:104AF00007E4E3FB61426442C2F1404E38BFAEF1CD
:104B0000010EA6FB04234FF00002E6FB0E32A2FBCF
:104B100003463400E2FB6264A1FB06E6A4FB07E85F
:104B2000E4FB61687642C8F1405838BFA8F101083B
:104B3000A2FB06E4A3FB08E5E2FB6854A1FB05E643
:104B4000A7FB04E8E1FB648618F1200556F1000696
:104B5000A80940EA8660B109A8F11B0808F03F08DF
:104B6000B8F10A0F1CD901EB0C51BDE8F08100BF70
:104B7000FCF5EEE8E2DDD8D3CFCBC7C3C0BDB9B6F4
:104B8000B4B1AEACA9A7A5A3A19F9D9B9A989695F9
:104B90009392908F8D8C8B89888786858483828180
:104BA000A0FB006800FB01F208EB4208B8EB872885
:104BB00007D5341858EB0104D5D5401C51F100013C
:104BC000D1E7341A78EB0104CDD4401E71F1000115
:104BD000C9E75FEA4C0C5FEA9C5C0DD105D301F09C
:104BE00000414FF00000BDE8F081BDE8F04170B534
:104BF000FFF7F0FE6DDBFFBEBDE8F04101494FF06D
:104C0000000070470000F87FF1EE100A4FF6FF71C8
:104C1000C0F2C03120EA010040F04070E1EE100A1D
:104C20007047000000000000000000003031323307
:104C300034353637383941424344454640305800D0
:104C40003031323334353637383961626364656602
:104C5000403078000400000800000000000000025E
:104C6000000100001000000000000000000102032D
:104C700004060708090000000001020304000610F2
:104C8000160006101642616420726561640A0042D3
:104C900061642073656E640A00000000D04D000856
:104CA000000000201000000000020008E04D000895
:104CB00010000020E80F00001C0200081001000096
:104CC00043000000F8FFFFFF0040404040404040EC
:104CD00040404141414141404040404040404040CF
:104CE0004040404040404040400502020202020273
:104CF00002020202020202020220202020202020C2
:104D000020202002020202020202909090909090D5
:104D10001010101010101010101010101010101093
:104D20001010101002020202020288888888888807
:104D300008080808080808080808080808080808F3
:104D400008080808020202024000000000000000FB
:104D50000000000000000000000000000000000053
:104D60000000000000000000000000000000000043
:104D70000000000000000000000000000000000033
:104D80000000000000000000000000000000000023
:104D90000000000000000000000000000000000013
:104DA0000000000000000000000000000000000003
:104DB00000000000000000000000000000000000F3
:104DC00000000000000000000000000000000000E3
:104DD00001000000100000000024F4001400000096
:04000005080001C529
:00000001FF
